{
  "contractName": "DADetails",
  "abi": [
    {
      "constant": true,
      "inputs": [],
      "name": "dateLodged",
      "outputs": [
        {
          "name": "",
          "type": "uint256"
        }
      ],
      "payable": false,
      "stateMutability": "view",
      "type": "function"
    },
    {
      "constant": true,
      "inputs": [],
      "name": "dateApproved",
      "outputs": [
        {
          "name": "",
          "type": "uint256"
        }
      ],
      "payable": false,
      "stateMutability": "view",
      "type": "function"
    },
    {
      "constant": true,
      "inputs": [],
      "name": "daid",
      "outputs": [
        {
          "name": "",
          "type": "string"
        }
      ],
      "payable": false,
      "stateMutability": "view",
      "type": "function"
    },
    {
      "constant": true,
      "inputs": [],
      "name": "lga",
      "outputs": [
        {
          "name": "",
          "type": "string"
        }
      ],
      "payable": false,
      "stateMutability": "view",
      "type": "function"
    },
    {
      "constant": true,
      "inputs": [],
      "name": "planRegisteredDescription",
      "outputs": [
        {
          "name": "",
          "type": "string"
        }
      ],
      "payable": false,
      "stateMutability": "view",
      "type": "function"
    },
    {
      "constant": true,
      "inputs": [
        {
          "name": "",
          "type": "uint256"
        }
      ],
      "name": "eventLogIds",
      "outputs": [
        {
          "name": "",
          "type": "string"
        }
      ],
      "payable": false,
      "stateMutability": "view",
      "type": "function"
    },
    {
      "constant": true,
      "inputs": [],
      "name": "ccDateLodged",
      "outputs": [
        {
          "name": "",
          "type": "uint256"
        }
      ],
      "payable": false,
      "stateMutability": "view",
      "type": "function"
    },
    {
      "constant": true,
      "inputs": [],
      "name": "sdcDateLodged",
      "outputs": [
        {
          "name": "",
          "type": "uint256"
        }
      ],
      "payable": false,
      "stateMutability": "view",
      "type": "function"
    },
    {
      "constant": true,
      "inputs": [],
      "name": "description",
      "outputs": [
        {
          "name": "",
          "type": "string"
        }
      ],
      "payable": false,
      "stateMutability": "view",
      "type": "function"
    },
    {
      "constant": true,
      "inputs": [],
      "name": "planApproveDateLodged",
      "outputs": [
        {
          "name": "",
          "type": "uint256"
        }
      ],
      "payable": false,
      "stateMutability": "view",
      "type": "function"
    },
    {
      "constant": true,
      "inputs": [],
      "name": "sdcDateApproved",
      "outputs": [
        {
          "name": "",
          "type": "uint256"
        }
      ],
      "payable": false,
      "stateMutability": "view",
      "type": "function"
    },
    {
      "constant": true,
      "inputs": [],
      "name": "applicant",
      "outputs": [
        {
          "name": "",
          "type": "address"
        }
      ],
      "payable": false,
      "stateMutability": "view",
      "type": "function"
    },
    {
      "constant": true,
      "inputs": [],
      "name": "sdcDescription",
      "outputs": [
        {
          "name": "",
          "type": "string"
        }
      ],
      "payable": false,
      "stateMutability": "view",
      "type": "function"
    },
    {
      "constant": true,
      "inputs": [],
      "name": "planRegisteredDateApproved",
      "outputs": [
        {
          "name": "",
          "type": "uint256"
        }
      ],
      "payable": false,
      "stateMutability": "view",
      "type": "function"
    },
    {
      "constant": true,
      "inputs": [
        {
          "name": "",
          "type": "uint256"
        }
      ],
      "name": "fileNames",
      "outputs": [
        {
          "name": "",
          "type": "string"
        }
      ],
      "payable": false,
      "stateMutability": "view",
      "type": "function"
    },
    {
      "constant": true,
      "inputs": [],
      "name": "estimatedCost",
      "outputs": [
        {
          "name": "",
          "type": "uint256"
        }
      ],
      "payable": false,
      "stateMutability": "view",
      "type": "function"
    },
    {
      "constant": true,
      "inputs": [],
      "name": "ccDescription",
      "outputs": [
        {
          "name": "",
          "type": "string"
        }
      ],
      "payable": false,
      "stateMutability": "view",
      "type": "function"
    },
    {
      "constant": true,
      "inputs": [],
      "name": "ccDateApproved",
      "outputs": [
        {
          "name": "",
          "type": "uint256"
        }
      ],
      "payable": false,
      "stateMutability": "view",
      "type": "function"
    },
    {
      "constant": true,
      "inputs": [],
      "name": "State",
      "outputs": [
        {
          "name": "",
          "type": "uint8"
        }
      ],
      "payable": false,
      "stateMutability": "view",
      "type": "function"
    },
    {
      "inputs": [
        {
          "name": "_daId",
          "type": "string"
        },
        {
          "name": "_dateLodged",
          "type": "uint256"
        },
        {
          "name": "_description",
          "type": "string"
        },
        {
          "name": "_lga",
          "type": "string"
        },
        {
          "name": "_estimatedCost",
          "type": "uint256"
        }
      ],
      "payable": false,
      "stateMutability": "nonpayable",
      "type": "constructor"
    },
    {
      "anonymous": false,
      "inputs": [
        {
          "indexed": false,
          "name": "newState",
          "type": "uint8"
        }
      ],
      "name": "StateChanged",
      "type": "event"
    },
    {
      "constant": false,
      "inputs": [
        {
          "name": "newState",
          "type": "uint8"
        }
      ],
      "name": "changeState",
      "outputs": [],
      "payable": false,
      "stateMutability": "nonpayable",
      "type": "function"
    },
    {
      "constant": true,
      "inputs": [],
      "name": "getCurrentState",
      "outputs": [
        {
          "name": "",
          "type": "uint8"
        }
      ],
      "payable": false,
      "stateMutability": "view",
      "type": "function"
    },
    {
      "constant": false,
      "inputs": [
        {
          "name": "_daid",
          "type": "string"
        },
        {
          "name": "_dateLodged",
          "type": "uint256"
        },
        {
          "name": "_description",
          "type": "string"
        },
        {
          "name": "_lga",
          "type": "string"
        },
        {
          "name": "_estimatedcost",
          "type": "uint256"
        },
        {
          "name": "_dateApproved",
          "type": "uint256"
        }
      ],
      "name": "daLodge",
      "outputs": [],
      "payable": false,
      "stateMutability": "nonpayable",
      "type": "function"
    },
    {
      "constant": false,
      "inputs": [
        {
          "name": "daApproveResult",
          "type": "bool"
        }
      ],
      "name": "daApprove",
      "outputs": [
        {
          "name": "",
          "type": "bool"
        }
      ],
      "payable": false,
      "stateMutability": "nonpayable",
      "type": "function"
    },
    {
      "constant": false,
      "inputs": [
        {
          "name": "_ccDateLodged",
          "type": "uint256"
        },
        {
          "name": "_ccDescription",
          "type": "string"
        },
        {
          "name": "_ccDateApproved",
          "type": "uint256"
        }
      ],
      "name": "ccLodge",
      "outputs": [],
      "payable": false,
      "stateMutability": "nonpayable",
      "type": "function"
    },
    {
      "constant": false,
      "inputs": [
        {
          "name": "ccApproveResult",
          "type": "bool"
        }
      ],
      "name": "ccApprove",
      "outputs": [
        {
          "name": "",
          "type": "bool"
        }
      ],
      "payable": false,
      "stateMutability": "nonpayable",
      "type": "function"
    },
    {
      "constant": false,
      "inputs": [
        {
          "name": "_sdcDateLodged",
          "type": "uint256"
        },
        {
          "name": "_sdcDescription",
          "type": "string"
        },
        {
          "name": "_sdcDateApproved",
          "type": "uint256"
        }
      ],
      "name": "scLodge",
      "outputs": [],
      "payable": false,
      "stateMutability": "nonpayable",
      "type": "function"
    },
    {
      "constant": false,
      "inputs": [
        {
          "name": "scApproveResult",
          "type": "bool"
        }
      ],
      "name": "scApprove",
      "outputs": [
        {
          "name": "",
          "type": "bool"
        }
      ],
      "payable": false,
      "stateMutability": "nonpayable",
      "type": "function"
    },
    {
      "constant": false,
      "inputs": [
        {
          "name": "_planApproveDateLodged",
          "type": "uint256"
        },
        {
          "name": "_planRegisteredDescription",
          "type": "string"
        },
        {
          "name": "_planRegisteredDateApproved",
          "type": "uint256"
        }
      ],
      "name": "planApprove",
      "outputs": [],
      "payable": false,
      "stateMutability": "nonpayable",
      "type": "function"
    },
    {
      "constant": false,
      "inputs": [
        {
          "name": "planRegisteredResult",
          "type": "bool"
        }
      ],
      "name": "planRegister",
      "outputs": [
        {
          "name": "",
          "type": "bool"
        }
      ],
      "payable": false,
      "stateMutability": "nonpayable",
      "type": "function"
    },
    {
      "constant": true,
      "inputs": [],
      "name": "getGeoFiles",
      "outputs": [
        {
          "name": "",
          "type": "string"
        }
      ],
      "payable": false,
      "stateMutability": "pure",
      "type": "function"
    },
    {
      "constant": false,
      "inputs": [
        {
          "name": "fileName",
          "type": "string"
        },
        {
          "name": "fileType",
          "type": "string"
        },
        {
          "name": "uploadedBy",
          "type": "address"
        },
        {
          "name": "ipfsHash",
          "type": "string"
        }
      ],
      "name": "addAttachment",
      "outputs": [
        {
          "name": "",
          "type": "bool"
        }
      ],
      "payable": false,
      "stateMutability": "nonpayable",
      "type": "function"
    },
    {
      "constant": true,
      "inputs": [],
      "name": "getFileNamesCount",
      "outputs": [
        {
          "name": "",
          "type": "uint256"
        }
      ],
      "payable": false,
      "stateMutability": "view",
      "type": "function"
    },
    {
      "constant": true,
      "inputs": [
        {
          "name": "index",
          "type": "uint256"
        }
      ],
      "name": "getFileName",
      "outputs": [
        {
          "name": "",
          "type": "string"
        }
      ],
      "payable": false,
      "stateMutability": "view",
      "type": "function"
    },
    {
      "constant": true,
      "inputs": [
        {
          "name": "fileName",
          "type": "string"
        }
      ],
      "name": "getFileType",
      "outputs": [
        {
          "name": "",
          "type": "string"
        }
      ],
      "payable": false,
      "stateMutability": "view",
      "type": "function"
    },
    {
      "constant": true,
      "inputs": [
        {
          "name": "fileName",
          "type": "string"
        }
      ],
      "name": "getLatestIpfsHash",
      "outputs": [
        {
          "name": "",
          "type": "string"
        }
      ],
      "payable": false,
      "stateMutability": "view",
      "type": "function"
    },
    {
      "constant": true,
      "inputs": [
        {
          "name": "fileName",
          "type": "string"
        }
      ],
      "name": "getAttachmentVersionCount",
      "outputs": [
        {
          "name": "",
          "type": "uint256"
        }
      ],
      "payable": false,
      "stateMutability": "view",
      "type": "function"
    },
    {
      "constant": true,
      "inputs": [
        {
          "name": "fileName",
          "type": "string"
        },
        {
          "name": "index",
          "type": "uint256"
        }
      ],
      "name": "getAttachmentVersionByIndex",
      "outputs": [
        {
          "name": "",
          "type": "string"
        }
      ],
      "payable": false,
      "stateMutability": "view",
      "type": "function"
    },
    {
      "constant": true,
      "inputs": [
        {
          "name": "fileName",
          "type": "string"
        }
      ],
      "name": "getUploadedBy",
      "outputs": [
        {
          "name": "",
          "type": "address"
        }
      ],
      "payable": false,
      "stateMutability": "view",
      "type": "function"
    },
    {
      "constant": false,
      "inputs": [
        {
          "name": "logString",
          "type": "string"
        },
        {
          "name": "logSubject",
          "type": "string"
        },
        {
          "name": "logDescription",
          "type": "string"
        },
        {
          "name": "logBy",
          "type": "string"
        },
        {
          "name": "logDate",
          "type": "uint256"
        }
      ],
      "name": "addEventLog",
      "outputs": [
        {
          "name": "",
          "type": "bool"
        }
      ],
      "payable": false,
      "stateMutability": "nonpayable",
      "type": "function"
    },
    {
      "constant": true,
      "inputs": [
        {
          "name": "index",
          "type": "uint256"
        }
      ],
      "name": "getEventLogId",
      "outputs": [
        {
          "name": "",
          "type": "string"
        }
      ],
      "payable": false,
      "stateMutability": "view",
      "type": "function"
    },
    {
      "constant": true,
      "inputs": [],
      "name": "getEventLogsCount",
      "outputs": [
        {
          "name": "",
          "type": "uint256"
        }
      ],
      "payable": false,
      "stateMutability": "view",
      "type": "function"
    },
    {
      "constant": true,
      "inputs": [
        {
          "name": "index",
          "type": "uint256"
        }
      ],
      "name": "getEventTitle",
      "outputs": [
        {
          "name": "",
          "type": "string"
        }
      ],
      "payable": false,
      "stateMutability": "view",
      "type": "function"
    },
    {
      "constant": true,
      "inputs": [
        {
          "name": "index",
          "type": "uint256"
        }
      ],
      "name": "getEventSubject",
      "outputs": [
        {
          "name": "",
          "type": "string"
        }
      ],
      "payable": false,
      "stateMutability": "view",
      "type": "function"
    },
    {
      "constant": true,
      "inputs": [
        {
          "name": "index",
          "type": "uint256"
        }
      ],
      "name": "getEventDate",
      "outputs": [
        {
          "name": "",
          "type": "uint256"
        }
      ],
      "payable": false,
      "stateMutability": "view",
      "type": "function"
    },
    {
      "constant": true,
      "inputs": [
        {
          "name": "index",
          "type": "uint256"
        }
      ],
      "name": "getEventLogData",
      "outputs": [
        {
          "name": "",
          "type": "string"
        },
        {
          "name": "",
          "type": "string"
        },
        {
          "name": "",
          "type": "string"
        },
        {
          "name": "",
          "type": "string"
        },
        {
          "name": "",
          "type": "uint256"
        }
      ],
      "payable": false,
      "stateMutability": "view",
      "type": "function"
    }
  ],
  "bytecode": "0x60806040523480156200001157600080fd5b5060405162003f5638038062003f56833981018060405281019080805182019291906020018051906020019092919080518201929190602001805182019291906020018051906020019092919050505033600660006101000a81548173ffffffffffffffffffffffffffffffffffffffff021916908373ffffffffffffffffffffffffffffffffffffffff1602179055508460009080519060200190620000ba9291906200018e565b50836001819055508260039080519060200190620000da9291906200018e565b508160059080519060200190620000f39291906200018e565b508060048190555062000116600062000121640100000000026401000000009004565b50505050506200023d565b80601460006101000a81548160ff021916908360078111156200014057fe5b02179055507f551dc40198cc79684bb69e4931dba4ac16e4598792ee1c0a5000aeea366d7bb681604051808260078111156200017857fe5b60ff16815260200191505060405180910390a150565b828054600181600116156101000203166002900490600052602060002090601f016020900481019282601f10620001d157805160ff191683800117855562000202565b8280016001018555821562000202579182015b8281111562000201578251825591602001919060010190620001e4565b5b50905062000211919062000215565b5090565b6200023a91905b80821115620002365760008160009055506001016200021c565b5090565b90565b613d09806200024d6000396000f300608060405260043610610225576000357c0100000000000000000000000000000000000000000000000000000000900463ffffffff16806306c28ed71461022a5780630b4fc64c146102ba5780631bc52d9b14610363578063268f11531461038e5780632a4ecbd3146103be5780632f8d0417146103ff578063378aa7011461042a57806337c8dacc146104635780633afc4b83146104f35780633b452b8e14610599578063454ac15714610629578063486bce521461065457806349c9a2bd146106d15780634ae9467d146107185780634b0a3e7b146108755780634ea9ae5c146109615780634f307715146109f15780634fe8eb1614610a9757806351b01d8614610c885780635baff95914610db557806365d3e91214610de057806366b36ea814610e5d5780637284e41614610e885780637746a16814610f1857806377d67ceb14610f435780638706c9e11461105657806388e687ea146110815780638cbf2c6f146110d85780638f20373a1461116857806392b2ef0c146111935780639a5f5949146111da5780639b0b688614611280578063b9a54cd914611362578063bbdf48c51461138d578063c51d00eb146113d4578063c74ed48814611451578063cfc4f82014611498578063d386c2261461153e578063d6ed2f0614611620578063d9a874fd1461164b578063df647178146116db578063ed7c238d14611781578063eec8cab714611827578063f1b6dccd14611852578063f38362a21461188b575b600080fd5b34801561023657600080fd5b5061023f611908565b6040518080602001828103825283818151815260200191508051906020019080838360005b8381101561027f578082015181840152602081019050610264565b50505050905090810190601f1680156102ac5780820380516001836020036101000a031916815260200191505b509250505060405180910390f35b3480156102c657600080fd5b50610321600480360381019080803590602001908201803590602001908080601f0160208091040260200160405190810160405280939291908181526020018383808284378201915050505050509192919290505050611945565b604051808273ffffffffffffffffffffffffffffffffffffffff1673ffffffffffffffffffffffffffffffffffffffff16815260200191505060405180910390f35b34801561036f57600080fd5b506103786119e2565b6040518082815260200191505060405180910390f35b34801561039a57600080fd5b506103bc600480360381019080803560ff1690602001909291905050506119e8565b005b3480156103ca57600080fd5b506103e960048036038101908080359060200190929190505050611a53565b6040518082815260200191505060405180910390f35b34801561040b57600080fd5b50610414611aee565b6040518082815260200191505060405180910390f35b34801561043657600080fd5b5061043f611af4565b6040518082600781111561044f57fe5b60ff16815260200191505060405180910390f35b34801561046f57600080fd5b50610478611b0b565b6040518080602001828103825283818151815260200191508051906020019080838360005b838110156104b857808201518184015260208101905061049d565b50505050905090810190601f1680156104e55780820380516001836020036101000a031916815260200191505b509250505060405180910390f35b3480156104ff57600080fd5b5061051e60048036038101908080359060200190929190505050611ba9565b6040518080602001828103825283818151815260200191508051906020019080838360005b8381101561055e578082015181840152602081019050610543565b50505050905090810190601f16801561058b5780820380516001836020036101000a031916815260200191505b509250505060405180910390f35b3480156105a557600080fd5b506105ae611c64565b6040518080602001828103825283818151815260200191508051906020019080838360005b838110156105ee5780820151818401526020810190506105d3565b50505050905090810190601f16801561061b5780820380516001836020036101000a031916815260200191505b509250505060405180910390f35b34801561063557600080fd5b5061063e611d02565b6040518082815260200191505060405180910390f35b34801561066057600080fd5b506106bb600480360381019080803590602001908201803590602001908080601f0160208091040260200160405190810160405280939291908181526020018383808284378201915050505050509192919290505050611d0f565b6040518082815260200191505060405180910390f35b3480156106dd57600080fd5b506106fe600480360381019080803515159060200190929190505050611ddc565b604051808215151515815260200191505060405180910390f35b34801561072457600080fd5b5061085b600480360381019080803590602001908201803590602001908080601f0160208091040260200160405190810160405280939291908181526020018383808284378201915050505050509192919290803590602001908201803590602001908080601f0160208091040260200160405190810160405280939291908181526020018383808284378201915050505050509192919290803590602001908201803590602001908080601f0160208091040260200160405190810160405280939291908181526020018383808284378201915050505050509192919290803590602001908201803590602001908080601f016020809104026020016040519081016040528093929190818152602001838380828437820191505050505050919291929080359060200190929190505050611e2c565b604051808215151515815260200191505060405180910390f35b34801561088157600080fd5b506108e6600480360381019080803590602001908201803590602001908080601f0160208091040260200160405190810160405280939291908181526020018383808284378201915050505050509192919290803590602001909291905050506121a5565b6040518080602001828103825283818151815260200191508051906020019080838360005b8381101561092657808201518184015260208101905061090b565b50505050905090810190601f1680156109535780820380516001836020036101000a031916815260200191505b509250505060405180910390f35b34801561096d57600080fd5b50610976612359565b6040518080602001828103825283818151815260200191508051906020019080838360005b838110156109b657808201518184015260208101905061099b565b50505050905090810190601f1680156109e35780820380516001836020036101000a031916815260200191505b509250505060405180910390f35b3480156109fd57600080fd5b50610a1c600480360381019080803590602001909291905050506123f7565b6040518080602001828103825283818151815260200191508051906020019080838360005b83811015610a5c578082015181840152602081019050610a41565b50505050905090810190601f168015610a895780820380516001836020036101000a031916815260200191505b509250505060405180910390f35b348015610aa357600080fd5b50610ac2600480360381019080803590602001909291905050506124b2565b604051808060200180602001806020018060200186815260200185810385528a818151815260200191508051906020019080838360005b83811015610b14578082015181840152602081019050610af9565b50505050905090810190601f168015610b415780820380516001836020036101000a031916815260200191505b50858103845289818151815260200191508051906020019080838360005b83811015610b7a578082015181840152602081019050610b5f565b50505050905090810190601f168015610ba75780820380516001836020036101000a031916815260200191505b50858103835288818151815260200191508051906020019080838360005b83811015610be0578082015181840152602081019050610bc5565b50505050905090810190601f168015610c0d5780820380516001836020036101000a031916815260200191505b50858103825287818151815260200191508051906020019080838360005b83811015610c46578082015181840152602081019050610c2b565b50505050905090810190601f168015610c735780820380516001836020036101000a031916815260200191505b50995050505050505050505060405180910390f35b348015610c9457600080fd5b50610d9b600480360381019080803590602001908201803590602001908080601f0160208091040260200160405190810160405280939291908181526020018383808284378201915050505050509192919290803590602001908201803590602001908080601f0160208091040260200160405190810160405280939291908181526020018383808284378201915050505050509192919290803573ffffffffffffffffffffffffffffffffffffffff169060200190929190803590602001908201803590602001908080601f01602080910402602001604051908101604052809392919081815260200183838082843782019150505050505091929192905050506127fb565b604051808215151515815260200191505060405180910390f35b348015610dc157600080fd5b50610dca612aea565b6040518082815260200191505060405180910390f35b348015610dec57600080fd5b50610e5b60048036038101908080359060200190929190803590602001908201803590602001908080601f016020809104026020016040519081016040528093929190818152602001838380828437820191505050505050919291929080359060200190929190505050612af0565b005b348015610e6957600080fd5b50610e72612b58565b6040518082815260200191505060405180910390f35b348015610e9457600080fd5b50610e9d612b5e565b6040518080602001828103825283818151815260200191508051906020019080838360005b83811015610edd578082015181840152602081019050610ec2565b50505050905090810190601f168015610f0a5780820380516001836020036101000a031916815260200191505b509250505060405180910390f35b348015610f2457600080fd5b50610f2d612bfc565b6040518082815260200191505060405180910390f35b348015610f4f57600080fd5b50611054600480360381019080803590602001908201803590602001908080601f016020809104026020016040519081016040528093929190818152602001838380828437820191505050505050919291929080359060200190929190803590602001908201803590602001908080601f0160208091040260200160405190810160405280939291908181526020018383808284378201915050505050509192919290803590602001908201803590602001908080601f01602080910402602001604051908101604052809392919081815260200183838082843782019150505050505091929192908035906020019092919080359060200190929190505050612c02565b005b34801561106257600080fd5b5061106b612caf565b6040518082815260200191505060405180910390f35b34801561108d57600080fd5b50611096612cb5565b604051808273ffffffffffffffffffffffffffffffffffffffff1673ffffffffffffffffffffffffffffffffffffffff16815260200191505060405180910390f35b3480156110e457600080fd5b506110ed612cdb565b6040518080602001828103825283818151815260200191508051906020019080838360005b8381101561112d578082015181840152602081019050611112565b50505050905090810190601f16801561115a5780820380516001836020036101000a031916815260200191505b509250505060405180910390f35b34801561117457600080fd5b5061117d612d79565b6040518082815260200191505060405180910390f35b34801561119f57600080fd5b506111c0600480360381019080803515159060200190929190505050612d86565b604051808215151515815260200191505060405180910390f35b3480156111e657600080fd5b5061120560048036038101908080359060200190929190505050612dd6565b6040518080602001828103825283818151815260200191508051906020019080838360005b8381101561124557808201518184015260208101905061122a565b50505050905090810190601f1680156112725780820380516001836020036101000a031916815260200191505b509250505060405180910390f35b34801561128c57600080fd5b506112e7600480360381019080803590602001908201803590602001908080601f0160208091040260200160405190810160405280939291908181526020018383808284378201915050505050509192919290505050612f0a565b6040518080602001828103825283818151815260200191508051906020019080838360005b8381101561132757808201518184015260208101905061130c565b50505050905090810190601f1680156113545780820380516001836020036101000a031916815260200191505b509250505060405180910390f35b34801561136e57600080fd5b5061137761309d565b6040518082815260200191505060405180910390f35b34801561139957600080fd5b506113ba6004803603810190808035151590602001909291905050506130a3565b604051808215151515815260200191505060405180910390f35b3480156113e057600080fd5b5061144f60048036038101908080359060200190929190803590602001908201803590602001908080601f0160208091040260200160405190810160405280939291908181526020018383808284378201915050505050509192919290803590602001909291905050506130f2565b005b34801561145d57600080fd5b5061147e60048036038101908080351515906020019092919050505061315a565b604051808215151515815260200191505060405180910390f35b3480156114a457600080fd5b506114c3600480360381019080803590602001909291905050506131aa565b6040518080602001828103825283818151815260200191508051906020019080838360005b838110156115035780820151818401526020810190506114e8565b50505050905090810190601f1680156115305780820380516001836020036101000a031916815260200191505b509250505060405180910390f35b34801561154a57600080fd5b506115a5600480360381019080803590602001908201803590602001908080601f0160208091040260200160405190810160405280939291908181526020018383808284378201915050505050509192919290505050613265565b6040518080602001828103825283818151815260200191508051906020019080838360005b838110156115e55780820151818401526020810190506115ca565b50505050905090810190601f1680156116125780820380516001836020036101000a031916815260200191505b509250505060405180910390f35b34801561162c57600080fd5b5061163561337b565b6040518082815260200191505060405180910390f35b34801561165757600080fd5b50611660613381565b6040518080602001828103825283818151815260200191508051906020019080838360005b838110156116a0578082015181840152602081019050611685565b50505050905090810190601f1680156116cd5780820380516001836020036101000a031916815260200191505b509250505060405180910390f35b3480156116e757600080fd5b506117066004803603810190808035906020019092919050505061341f565b6040518080602001828103825283818151815260200191508051906020019080838360005b8381101561174657808201518184015260208101905061172b565b50505050905090810190601f1680156117735780820380516001836020036101000a031916815260200191505b509250505060405180910390f35b34801561178d57600080fd5b506117ac60048036038101908080359060200190929190505050613553565b6040518080602001828103825283818151815260200191508051906020019080838360005b838110156117ec5780820151818401526020810190506117d1565b50505050905090810190601f1680156118195780820380516001836020036101000a031916815260200191505b509250505060405180910390f35b34801561183357600080fd5b5061183c61360e565b6040518082815260200191505060405180910390f35b34801561185e57600080fd5b50611867613614565b6040518082600781111561187757fe5b60ff16815260200191505060405180910390f35b34801561189757600080fd5b5061190660048036038101908080359060200190929190803590602001908201803590602001908080601f016020809104026020016040519081016040528093929190818152602001838380828437820191505050505050919291929080359060200190929190505050613627565b005b60606040805190810160405280600281526020017f5b5d000000000000000000000000000000000000000000000000000000000000815250905090565b6000806011836040518082805190602001908083835b602083101515611980578051825260208201915060208101905060208303925061195b565b6001836020036101000a038019825116818451168082178552505050505050905001915050908152602001604051809103902090508060030160009054906101000a900473ffffffffffffffffffffffffffffffffffffffff16915050919050565b60015481565b80601460006101000a81548160ff02191690836007811115611a0657fe5b02179055507f551dc40198cc79684bb69e4931dba4ac16e4598792ee1c0a5000aeea366d7bb68160405180826007811115611a3d57fe5b60ff16815260200191505060405180910390a150565b6000806013601284815481101515611a6757fe5b906000526020600020016040518082805460018160011615610100020316600290048015611acc5780601f10611aaa576101008083540402835291820191611acc565b820191906000526020600020905b815481529060010190602001808311611ab8575b5050915050908152602001604051809103902090508060050154915050919050565b60025481565b6000601460009054906101000a900460ff16905090565b60008054600181600116156101000203166002900480601f016020809104026020016040519081016040528092919081815260200182805460018160011615610100020316600290048015611ba15780601f10611b7657610100808354040283529160200191611ba1565b820191906000526020600020905b815481529060010190602001808311611b8457829003601f168201915b505050505081565b6060601282815481101515611bba57fe5b906000526020600020018054600181600116156101000203166002900480601f016020809104026020016040519081016040528092919081815260200182805460018160011615610100020316600290048015611c585780601f10611c2d57610100808354040283529160200191611c58565b820191906000526020600020905b815481529060010190602001808311611c3b57829003601f168201915b50505050509050919050565b60058054600181600116156101000203166002900480601f016020809104026020016040519081016040528092919081815260200182805460018160011615610100020316600290048015611cfa5780601f10611ccf57610100808354040283529160200191611cfa565b820191906000526020600020905b815481529060010190602001808311611cdd57829003601f168201915b505050505081565b6000601280549050905090565b6000806011836040518082805190602001908083835b602083101515611d4a5780518252602082019150602081019050602083039250611d25565b6001836020036101000a0380198251168184511680821785525050505050509050019150509081526020016040518091039020905060008160030160009054906101000a900473ffffffffffffffffffffffffffffffffffffffff1673ffffffffffffffffffffffffffffffffffffffff161415611dcb5760009150611dd6565b806000018054905091505b50919050565b600060026007811115611deb57fe5b601460009054906101000a900460ff166007811115611e0657fe5b141515611e1257600080fd5b8115611e2357611e2260036119e8565b5b60019050919050565b600060606000611f2160008054600181600116156101000203166002900480601f016020809104026020016040519081016040528092919081815260200182805460018160011615610100020316600290048015611ecb5780601f10611ea057610100808354040283529160200191611ecb565b820191906000526020600020905b815481529060010190602001808311611eae57829003601f168201915b50505050506040805190810160405280600181526020017f5f00000000000000000000000000000000000000000000000000000000000000815250611f1c611f1760128054905061368f565b613738565b61383b565b91506013826040518082805190602001908083835b602083101515611f5b5780518252602082019150602081019050602083039250611f36565b6001836020036101000a038019825116818451168082178552505050505050905001915050908152602001604051809103902090506012829080600181540180825580915050906001820390600052602060002001600090919290919091509080519060200190611fcd929190613acd565b505081816000019080519060200190611fe7929190613acd565b5087816001019080519060200190612000929190613acd565b5086816002019080519060200190612019929190613acd565b5085816003019080519060200190612032929190613acd565b508481600401908051906020019061204b929190613acd565b50838160050181905550806013836040518082805190602001908083835b60208310151561208e5780518252602082019150602081019050602083039250612069565b6001836020036101000a0380198251168184511680821785525050505050509050019150509081526020016040518091039020600082018160000190805460018160011615610100020316600290046120e8929190613b4d565b5060018201816001019080546001816001161561010002031660029004612110929190613b4d565b5060028201816002019080546001816001161561010002031660029004612138929190613b4d565b5060038201816003019080546001816001161561010002031660029004612160929190613b4d565b5060048201816004019080546001816001161561010002031660029004612188929190613b4d565b506005820154816005015590505060019250505095945050505050565b606060006011846040518082805190602001908083835b6020831015156121e157805182526020820191506020810190506020830392506121bc565b6001836020036101000a0380198251168184511680821785525050505050509050019150509081526020016040518091039020905060008160030160009054906101000a900473ffffffffffffffffffffffffffffffffffffffff1673ffffffffffffffffffffffffffffffffffffffff1614156122715760206040519081016040528060008152509150612352565b600183018160000180549050101561229b5760206040519081016040528060008152509150612352565b80600001838154811015156122ac57fe5b906000526020600020018054600181600116156101000203166002900480601f01602080910402602001604051908101604052809291908181526020018280546001816001161561010002031660029004801561234a5780601f1061231f5761010080835404028352916020019161234a565b820191906000526020600020905b81548152906001019060200180831161232d57829003601f168201915b505050505091505b5092915050565b600f8054600181600116156101000203166002900480601f0160208091040260200160405190810160405280929190818152602001828054600181600116156101000203166002900480156123ef5780601f106123c4576101008083540402835291602001916123ef565b820191906000526020600020905b8154815290600101906020018083116123d257829003601f168201915b505050505081565b60128181548110151561240657fe5b906000526020600020016000915090508054600181600116156101000203166002900480601f0160208091040260200160405190810160405280929190818152602001828054600181600116156101000203166002900480156124aa5780601f1061247f576101008083540402835291602001916124aa565b820191906000526020600020905b81548152906001019060200180831161248d57829003601f168201915b505050505081565b6060806060806000806000806000806000601360128d8154811015156124d457fe5b9060005260206000200160405180828054600181600116156101000203166002900480156125395780601f10612517576101008083540402835291820191612539565b820191906000526020600020905b815481529060010190602001808311612525575b505091505090815260200160405180910390209550856001019450856002019350856003019250856004019150856005015490508484848484848054600181600116156101000203166002900480601f0160208091040260200160405190810160405280929190818152602001828054600181600116156101000203166002900480156126075780601f106125dc57610100808354040283529160200191612607565b820191906000526020600020905b8154815290600101906020018083116125ea57829003601f168201915b50505050509450838054600181600116156101000203166002900480601f0160208091040260200160405190810160405280929190818152602001828054600181600116156101000203166002900480156126a35780601f10612678576101008083540402835291602001916126a3565b820191906000526020600020905b81548152906001019060200180831161268657829003601f168201915b50505050509350828054600181600116156101000203166002900480601f01602080910402602001604051908101604052809291908181526020018280546001816001161561010002031660029004801561273f5780601f106127145761010080835404028352916020019161273f565b820191906000526020600020905b81548152906001019060200180831161272257829003601f168201915b50505050509250818054600181600116156101000203166002900480601f0160208091040260200160405190810160405280929190818152602001828054600181600116156101000203166002900480156127db5780601f106127b0576101008083540402835291602001916127db565b820191906000526020600020905b8154815290600101906020018083116127be57829003601f168201915b505050505091509a509a509a509a509a5050505050505091939590929450565b6000806011866040518082805190602001908083835b6020831015156128365780518252602082019150602081019050602083039250612811565b6001836020036101000a0380198251168184511680821785525050505050509050019150509081526020016040518091039020905060008160030160009054906101000a900473ffffffffffffffffffffffffffffffffffffffff1673ffffffffffffffffffffffffffffffffffffffff1614156128ee5760108690806001815401808255809150509060018203906000526020600020016000909192909190915090805190602001906128eb929190613acd565b50505b8060000183908060018154018082558091505090600182039060005260206000200160009091929091909150908051906020019061292d929190613acd565b505084816002019080519060200190612947929190613acd565b50838160030160006101000a81548173ffffffffffffffffffffffffffffffffffffffff021916908373ffffffffffffffffffffffffffffffffffffffff160217905550858160010190805190602001906129a3929190613acd565b50806011876040518082805190602001908083835b6020831015156129dd57805182526020820191506020810190506020830392506129b8565b6001836020036101000a03801982511681845116808217855250505050505090500191505090815260200160405180910390206000820181600001908054612a26929190613bd4565b5060018201816001019080546001816001161561010002031660029004612a4e929190613b4d565b5060028201816002019080546001816001161561010002031660029004612a76929190613b4d565b506003820160009054906101000a900473ffffffffffffffffffffffffffffffffffffffff168160030160006101000a81548173ffffffffffffffffffffffffffffffffffffffff021916908373ffffffffffffffffffffffffffffffffffffffff16021790555090505050949350505050565b60075481565b60016007811115612afd57fe5b601460009054906101000a900460ff166007811115612b1857fe5b141515612b2457600080fd5b826007819055508160099080519060200190612b41929190613acd565b5080600881905550612b5360026119e8565b505050565b600a5481565b60038054600181600116156101000203166002900480601f016020809104026020016040519081016040528092919081815260200182805460018160011615610100020316600290048015612bf45780601f10612bc957610100808354040283529160200191612bf4565b820191906000526020600020905b815481529060010190602001808311612bd757829003601f168201915b505050505081565b600d5481565b33600660006101000a81548173ffffffffffffffffffffffffffffffffffffffff021916908373ffffffffffffffffffffffffffffffffffffffff1602179055508560009080519060200190612c59929190613acd565b50846001819055508360039080519060200190612c77929190613acd565b508260059080519060200190612c8e929190613acd565b508160048190555080600281905550612ca760006119e8565b505050505050565b600b5481565b600660009054906101000a900473ffffffffffffffffffffffffffffffffffffffff1681565b600c8054600181600116156101000203166002900480601f016020809104026020016040519081016040528092919081815260200182805460018160011615610100020316600290048015612d715780601f10612d4657610100808354040283529160200191612d71565b820191906000526020600020905b815481529060010190602001808311612d5457829003601f168201915b505050505081565b6000601080549050905090565b600060046007811115612d9557fe5b601460009054906101000a900460ff166007811115612db057fe5b141515612dbc57600080fd5b8115612dcd57612dcc60056119e8565b5b60019050919050565b606060006013601284815481101515612deb57fe5b906000526020600020016040518082805460018160011615610100020316600290048015612e505780601f10612e2e576101008083540402835291820191612e50565b820191906000526020600020905b815481529060010190602001808311612e3c575b505091505090815260200160405180910390209050806002018054600181600116156101000203166002900480601f016020809104026020016040519081016040528092919081815260200182805460018160011615610100020316600290048015612efd5780601f10612ed257610100808354040283529160200191612efd565b820191906000526020600020905b815481529060010190602001808311612ee057829003601f168201915b5050505050915050919050565b606060006011836040518082805190602001908083835b602083101515612f465780518252602082019150602081019050602083039250612f21565b6001836020036101000a0380198251168184511680821785525050505050509050019150509081526020016040518091039020905060008160030160009054906101000a900473ffffffffffffffffffffffffffffffffffffffff1673ffffffffffffffffffffffffffffffffffffffff161415612fd65760206040519081016040528060008152509150613097565b806000016001826000018054905003815481101515612ff157fe5b906000526020600020018054600181600116156101000203166002900480601f01602080910402602001604051908101604052809291908181526020018280546001816001161561010002031660029004801561308f5780601f106130645761010080835404028352916020019161308f565b820191906000526020600020905b81548152906001019060200180831161307257829003601f168201915b505050505091505b50919050565b600e5481565b60008060078111156130b157fe5b601460009054906101000a900460ff1660078111156130cc57fe5b1415156130d857600080fd5b81156130e9576130e860016119e8565b5b60019050919050565b600360078111156130ff57fe5b601460009054906101000a900460ff16600781111561311a57fe5b14151561312657600080fd5b82600a8190555081600c9080519060200190613143929190613acd565b5080600b8190555061315560046119e8565b505050565b60006006600781111561316957fe5b601460009054906101000a900460ff16600781111561318457fe5b14151561319057600080fd5b81156131a1576131a060076119e8565b5b60019050919050565b6010818154811015156131b957fe5b906000526020600020016000915090508054600181600116156101000203166002900480601f01602080910402602001604051908101604052809291908181526020018280546001816001161561010002031660029004801561325d5780601f106132325761010080835404028352916020019161325d565b820191906000526020600020905b81548152906001019060200180831161324057829003601f168201915b505050505081565b606060006011836040518082805190602001908083835b6020831015156132a1578051825260208201915060208101905060208303925061327c565b6001836020036101000a03801982511681845116808217855250505050505090500191505090815260200160405180910390209050806002018054600181600116156101000203166002900480601f01602080910402602001604051908101604052809291908181526020018280546001816001161561010002031660029004801561336e5780601f106133435761010080835404028352916020019161336e565b820191906000526020600020905b81548152906001019060200180831161335157829003601f168201915b5050505050915050919050565b60045481565b60098054600181600116156101000203166002900480601f0160208091040260200160405190810160405280929190818152602001828054600181600116156101000203166002900480156134175780601f106133ec57610100808354040283529160200191613417565b820191906000526020600020905b8154815290600101906020018083116133fa57829003601f168201915b505050505081565b60606000601360128481548110151561343457fe5b9060005260206000200160405180828054600181600116156101000203166002900480156134995780601f10613477576101008083540402835291820191613499565b820191906000526020600020905b815481529060010190602001808311613485575b505091505090815260200160405180910390209050806001018054600181600116156101000203166002900480601f0160208091040260200160405190810160405280929190818152602001828054600181600116156101000203166002900480156135465780601f1061351b57610100808354040283529160200191613546565b820191906000526020600020905b81548152906001019060200180831161352957829003601f168201915b5050505050915050919050565b606060108281548110151561356457fe5b906000526020600020018054600181600116156101000203166002900480601f0160208091040260200160405190810160405280929190818152602001828054600181600116156101000203166002900480156136025780601f106135d757610100808354040283529160200191613602565b820191906000526020600020905b8154815290600101906020018083116135e557829003601f168201915b50505050509050919050565b60085481565b601460009054906101000a900460ff1681565b6005600781111561363457fe5b601460009054906101000a900460ff16600781111561364f57fe5b14151561365b57600080fd5b82600d8190555080600e8190555081600f908051906020019061367f929190613acd565b5061368a60066119e8565b505050565b6000808214156136c1577f30000000000000000000000000000000000000000000000000000000000000009050613730565b5b600082111561372f5761010081600190048115156136dc57fe5b0460010290507f01000000000000000000000000000000000000000000000000000000000000006030600a8481151561371157fe5b06010260010281179050600a8281151561372757fe5b0491506136c2565b5b809050919050565b60608060008060206040519080825280601f01601f1916602001820160405280156137725781602001602082028038833980820191505090505b509250600091505b6020821015613830578160080260020a856001900402600102905060007f010000000000000000000000000000000000000000000000000000000000000002817effffffffffffffffffffffffffffffffffffffffffffffffffffffffffffff1916141515613823578083838151811015156137f257fe5b9060200101907effffffffffffffffffffffffffffffffffffffffffffffffffffffffffffff1916908160001a9053505b818060010192505061377a565b829350505050919050565b6060806060806060806000808a965089955088945084518651885101016040519080825280601f01601f19166020018201604052801561388a5781602001602082028038833980820191505090505b50935083925060009150600090505b865181101561394c5786818151811015156138b057fe5b9060200101517f010000000000000000000000000000000000000000000000000000000000000090047f010000000000000000000000000000000000000000000000000000000000000002838380600101945081518110151561390f57fe5b9060200101907effffffffffffffffffffffffffffffffffffffffffffffffffffffffffffff1916908160001a9053508080600101915050613899565b600090505b8551811015613a0457858181518110151561396857fe5b9060200101517f010000000000000000000000000000000000000000000000000000000000000090047f01000000000000000000000000000000000000000000000000000000000000000283838060010194508151811015156139c757fe5b9060200101907effffffffffffffffffffffffffffffffffffffffffffffffffffffffffffff1916908160001a9053508080600101915050613951565b600090505b8451811015613abc578481815181101515613a2057fe5b9060200101517f010000000000000000000000000000000000000000000000000000000000000090047f0100000000000000000000000000000000000000000000000000000000000000028383806001019450815181101515613a7f57fe5b9060200101907effffffffffffffffffffffffffffffffffffffffffffffffffffffffffffff1916908160001a9053508080600101915050613a09565b829750505050505050509392505050565b828054600181600116156101000203166002900490600052602060002090601f016020900481019282601f10613b0e57805160ff1916838001178555613b3c565b82800160010185558215613b3c579182015b82811115613b3b578251825591602001919060010190613b20565b5b509050613b499190613c44565b5090565b828054600181600116156101000203166002900490600052602060002090601f016020900481019282601f10613b865780548555613bc3565b82800160010185558215613bc357600052602060002091601f016020900482015b82811115613bc2578254825591600101919060010190613ba7565b5b509050613bd09190613c44565b5090565b828054828255906000526020600020908101928215613c335760005260206000209182015b82811115613c325782829080546001816001161561010002031660029004613c22929190613b4d565b5091600101919060010190613bf9565b5b509050613c409190613c69565b5090565b613c6691905b80821115613c62576000816000905550600101613c4a565b5090565b90565b613c9291905b80821115613c8e5760008181613c859190613c95565b50600101613c6f565b5090565b90565b50805460018160011615610100020316600290046000825580601f10613cbb5750613cda565b601f016020900490600052602060002090810190613cd99190613c44565b5b505600a165627a7a72305820f3241db4a0dbdb0d1edb1039d64f9293942378c5ff10644a4af26cb715cf97460029",
  "source": "pragma solidity ^0.4.18;\r\n\r\ncontract DADetails {\r\n\r\n    //STRUCTS\r\n    struct FileAttachment {\r\n        string[] ipfsHash;\r\n        string fileName;\r\n        string fileType;\r\n        address uploadedBy;\r\n    }\r\n\r\n    struct EventLog {\r\n        string eventLogId;\r\n        string eventTitle;\r\n        string eventSubject;\r\n        string eventDescription;\r\n        string eventBy;\r\n        uint eventDate;\r\n    }\r\n\r\n    // EVENTS\r\n    event StateChanged(ContractStates newState);\r\n    // ... all the state changes ...\r\n\r\n\r\n\r\n    // FIELD\r\n    \r\n    string public daid;\r\n    uint public dateLodged;\r\n    uint public dateApproved;\r\n    //...\r\n    // parcels {LotId, SectionId, PlanId, PlanType};\r\n    string public description;\r\n    uint public estimatedCost;\r\n    string public lga;\r\n    \r\n    address public applicant;\r\n    \r\n    // construction certificate lodge date\r\n    uint public ccDateLodged;\r\n   \r\n    // construction certificate approved date\r\n    uint public ccDateApproved;\r\n    \r\n    // construction certificate description\r\n    string public ccDescription;\r\n\r\n    // Sub division certificate lodge date\r\n    uint public sdcDateLodged;\r\n    \r\n    // Sub division certificate approved date\r\n    uint public sdcDateApproved;\r\n   \r\n   // sub division certificate description\r\n    string public sdcDescription;\r\n\r\n    // Plan approve certificate lodge date\r\n    uint public planApproveDateLodged;\r\n\r\n    // Plan registered certificate approved date\r\n    uint public planRegisteredDateApproved;\r\n\r\n    // Plan registered certificate description\r\n    string public planRegisteredDescription;\r\n\r\n    string[] public fileNames;\r\n    mapping (string => FileAttachment) attachments;\r\n\r\n    string[] public eventLogIds;\r\n    mapping (string => EventLog) eventLogs;\r\n\r\n    // contract states\r\n    enum ContractStates {DALodged, DAApproved, CCLodged, CCApproved, SCLodged, SCApproved, PlanLodged, PlanRegistered }\r\n    ContractStates public State;\r\n\r\n\r\n    // statechangedevents[]\r\n\r\n\r\n    // CONSTRUCTOR\r\n    function DADetails (string _daId, uint _dateLodged, string _description, string _lga, uint _estimatedCost) public {\r\n        applicant = msg.sender;\r\n        daid = _daId;\r\n        dateLodged = _dateLodged;\r\n        description = _description;\r\n        lga = _lga;\r\n        estimatedCost = _estimatedCost;\r\n        changeState(ContractStates.DALodged);\r\n    }\r\n\r\n    // METHODS\r\n    // function change the state\r\n\tfunction changeState(ContractStates newState) public {\r\n\t\tState = newState;\r\n\t\tStateChanged(newState);\r\n\t}\r\n\r\n   // function returns the current state \r\n    function getCurrentState() public view returns (ContractStates) {\r\n       return State;\r\n    }\r\n\r\n\r\n    // function changes the state to DA lodged \r\n    function daLodge (string _daid, uint _dateLodged, string _description, string _lga, uint _estimatedcost, uint _dateApproved) public {\r\n        applicant = msg.sender;\r\n        daid = _daid;\r\n        dateLodged = _dateLodged;\r\n        description = _description;\r\n        lga = _lga;\r\n        estimatedCost = _estimatedcost;\r\n        dateApproved = _dateApproved;\r\n        changeState(ContractStates.DALodged);\r\n    }\r\n\r\n\r\n     // function changes the state to DA Approved if current contract state is DA Lodged\r\n    function daApprove(bool daApproveResult) public returns (bool) {\r\n\t\trequire(State == ContractStates.DALodged);\r\n\t\t\r\n\t\tif (daApproveResult) {\r\n\t\t\tchangeState(ContractStates.DAApproved);\r\n\t\t} \r\n\r\n    return true;\r\n\t}\r\n\r\n     // function changes the state to construction (CC) lodged if current contract state is DAApproved approved\r\n    function ccLodge (uint _ccDateLodged, string _ccDescription, uint _ccDateApproved) public {      \r\n        require(State == ContractStates.DAApproved);   \r\n       \r\n        ccDateLodged = _ccDateLodged;\r\n        ccDescription = _ccDescription;\r\n        ccDateApproved = _ccDateApproved;\r\n\r\n        changeState(ContractStates.CCLodged);\r\n    }\r\n\r\n\r\n    // function changes the state to construction (CC) approved if current contract state is construction (CC) lodged\r\n    function ccApprove(bool ccApproveResult) public returns (bool) {\r\n\t\trequire(State == ContractStates.CCLodged);\r\n\t\t\r\n\t\tif (ccApproveResult) {\r\n\t\t\tchangeState(ContractStates.CCApproved);\r\n\t\t} \r\n\r\n\treturn true;\r\n\t}\r\n\r\n\r\n    // function changes the state to sub division (SC) lodged if current contract state is construction (CC) approved\r\n     function scLodge (uint _sdcDateLodged, string _sdcDescription, uint _sdcDateApproved) public {\r\n        require(State == ContractStates.CCApproved);\r\n        \r\n        sdcDateLodged = _sdcDateLodged;\r\n        sdcDescription = _sdcDescription;\r\n        sdcDateApproved = _sdcDateApproved;\r\n\r\n        changeState(ContractStates.SCLodged);\r\n    }\r\n\r\n   // function changes the state to sub division (SC) approved if current contract state is sub division (SC) lodged\r\n    function scApprove(bool scApproveResult) public returns (bool) {\r\n\t\trequire(State == ContractStates.SCLodged);\r\n\t\t\r\n\t\tif (scApproveResult) {\r\n\t\t\tchangeState(ContractStates.SCApproved);\r\n\t\t} \r\n\r\n\t    return true;\r\n\t}\r\n\r\n\r\n    // function changes the state to Plan lodged if current contract state is sub divison approved\r\n     function planApprove (uint _planApproveDateLodged, string _planRegisteredDescription, uint _planRegisteredDateApproved) public {\r\n        require(State == ContractStates.SCApproved);\r\n\r\n        planApproveDateLodged = _planApproveDateLodged;\r\n        planRegisteredDateApproved = _planRegisteredDateApproved;\r\n        planRegisteredDescription = _planRegisteredDescription;\r\n\r\n        changeState(ContractStates.PlanLodged);\r\n    }\r\n\r\n    // function changes the state to PlanRegistered if current contract state is Plan Lodged\r\n     function planRegister(bool planRegisteredResult) public returns (bool) {\r\n\t\trequire(State == ContractStates.PlanLodged);\r\n\t\t\r\n\t\tif (planRegisteredResult) {\r\n\t\t\tchangeState(ContractStates.PlanRegistered);\r\n\t\t} \r\n\t    return true;\r\n\t}\r\n\r\n\r\n    // get the hash of all the geographic files associated with this contract\r\n    function getGeoFiles() public pure returns(string) {\r\n        return \"[]\";\r\n    }\r\n\r\n    function addAttachment(string fileName, string fileType, address uploadedBy, string ipfsHash) public returns(bool) {\r\n        // look for the file name in the contract already\r\n        var attachment = attachments[fileName];\r\n        // if it's there, simply add the ipfs hash to the array of hashes, update the filetype and uploadedby\r\n        // if it's not, we get a blank one back, so this will fill it in.\r\n        if (attachment.uploadedBy == 0x00) {\r\n            fileNames.push(fileName);\r\n        }\r\n        attachment.ipfsHash.push(ipfsHash);\r\n        attachment.fileType = fileType;\r\n        attachment.uploadedBy = uploadedBy;\r\n        attachment.fileName = fileName;\r\n        attachments[fileName] = attachment;\r\n    }\r\n\r\n    function getFileNamesCount() public view returns(uint256) {\r\n        return fileNames.length;\r\n    }\r\n\r\n    function getFileName(uint256 index) public view returns(string) {\r\n        return fileNames[index];\r\n    }\r\n\r\n    function getFileType(string fileName) public view returns(string) {\r\n        var attachment = attachments[fileName];\r\n        return attachment.fileType;\r\n    } \r\n\r\n    function getLatestIpfsHash(string fileName) public view returns(string) {\r\n        var attachment = attachments[fileName];\r\n        if (attachment.uploadedBy == 0x00) {\r\n            return \"\";\r\n        } else {\r\n            return attachment.ipfsHash[attachment.ipfsHash.length - 1];\r\n        }\r\n    }\r\n\r\n    function getAttachmentVersionCount(string fileName) public view returns(uint256) {\r\n        var attachment = attachments[fileName];\r\n        if (attachment.uploadedBy == 0x00) {\r\n            return 0;\r\n        } else {\r\n            return attachment.ipfsHash.length;\r\n        }\r\n    }\r\n\r\n    function getAttachmentVersionByIndex(string fileName, uint256 index) public view returns(string) {\r\n        var attachment = attachments[fileName];\r\n        if (attachment.uploadedBy == 0x00) {\r\n            return \"\";\r\n        } else if (attachment.ipfsHash.length < index + 1) {\r\n            return \"\";\r\n        } else {\r\n            return attachment.ipfsHash[index];\r\n        }\r\n    }\r\n\r\n    function getUploadedBy(string fileName) public view returns(address) {\r\n        var attachment = attachments[fileName];\r\n        return attachment.uploadedBy;\r\n    }\r\n\r\n    // convert a bytes32 into a string\r\n    function bytes32ToString (bytes32 data) private pure returns (string) {\r\n        bytes memory bytesString = new bytes(32);\r\n        for (uint j = 0; j < 32; j++) {\r\n            byte char = byte(bytes32(uint(data) * 2 ** (8 * j)));\r\n            if (char != 0) {\r\n                bytesString[j] = char;\r\n            }\r\n        }\r\n        return string(bytesString);\r\n    }\r\n\r\n    // convert uint to Bytes\r\n    function uintToBytes(uint v) private pure returns (bytes32 ret) {\r\n        if (v == 0) {\r\n            ret = \"0\";\r\n        } else {\r\n            while (v > 0) {\r\n                ret = bytes32(uint(ret) / (2 ** 8));\r\n                ret |= bytes32(((v % 10) + 48) * 2 ** (8 * 31));\r\n                v /= 10;\r\n            }\r\n        }\r\n        return ret;\r\n    }\r\n\r\n    // Concate string\r\n    function strConcat(string _a, string _b, string _c) internal pure returns (string) {\r\n        bytes memory _ba = bytes(_a);\r\n        bytes memory _bb = bytes(_b);\r\n        bytes memory _bc = bytes(_c);\r\n        string memory abcde = new string(_ba.length + _bb.length + _bc.length);\r\n        bytes memory babcde = bytes(abcde);\r\n        uint k = 0;\r\n        for (uint i = 0; i < _ba.length; i++) {\r\n            babcde[k++] = _ba[i];\r\n        }\r\n        for (i = 0; i < _bb.length; i++) {\r\n            babcde[k++] = _bb[i];\r\n        }\r\n        for (i = 0; i < _bc.length; i++) {\r\n            babcde[k++] = _bc[i];\r\n        }\r\n        return string(babcde);\r\n    }\r\n\r\n    function addEventLog(string logString, string logSubject, string logDescription, string logBy, uint logDate) public returns (bool) {\r\n        var eventLogId = strConcat(daid, \"_\", bytes32ToString(uintToBytes(eventLogIds.length)));\r\n        var eventlog = eventLogs[eventLogId];\r\n\r\n        eventLogIds.push(eventLogId);\r\n\r\n        eventlog.eventLogId = eventLogId;\r\n        eventlog.eventTitle = logString;\r\n        eventlog.eventSubject = logSubject;\r\n        eventlog.eventDescription = logDescription;\r\n        eventlog.eventBy = logBy;\r\n        eventlog.eventDate = logDate;\r\n        \r\n        eventLogs[eventLogId] = eventlog;\r\n\r\n        return true;\r\n    }\r\n\r\n    // function getEventLogIpfsHashById(string eventLogId) public view returns(string) {\r\n    //     var eventLog = eventLogs[eventLogId];\r\n    //     return eventLog.ipfsHash;\r\n    // }\r\n\r\n    function getEventLogId(uint256 index) public view returns(string) {\r\n        return eventLogIds[index];\r\n    }\r\n\r\n    function getEventLogsCount() public view returns (uint256) {\r\n        return eventLogIds.length;\r\n    }\r\n\r\n    function getEventTitle(uint256 index) public view returns(string) {\r\n        var eventLog = eventLogs[eventLogIds[index]];\r\n        return eventLog.eventTitle;\r\n    } \r\n\r\n    function getEventSubject(uint256 index) public view returns(string) {\r\n        var eventLog = eventLogs[eventLogIds[index]];\r\n        return eventLog.eventSubject;\r\n    } \r\n\r\n    function getEventDate(uint256 index) public view returns(uint) {\r\n        var eventLog = eventLogs[eventLogIds[index]];\r\n        return eventLog.eventDate;\r\n    } \r\n\r\n    function getEventLogData(uint256 index) public constant returns(string, string, string, string, uint) {\r\n        var eventLog = eventLogs[eventLogIds[index]];\r\n        var title = eventLog.eventTitle;\r\n        var subject = eventLog.eventSubject;\r\n        var desc = eventLog.eventDescription;\r\n        var by = eventLog.eventBy;\r\n        var logDate = eventLog.eventDate;\r\n        \r\n        return (title, subject, desc, by, logDate);\r\n    }\r\n}\r\n",
  "sourcePath": "/mnt/d/BusinessAspect/Blockchain-For-Land-Development-Approvals/truffle/contracts/DADetails.sol",
  "compiler": {
    "name": "solc",
    "version": "0.4.24+commit.e67f0147.Emscripten.clang"
  },
  "schemaVersion": "2.0.1",
  "updatedAt": "2018-06-26T05:30:55.150Z"
}