{
  "contractName": "DARegister",
  "abi": [
    {
      "constant": false,
      "inputs": [
        {
          "name": "_daId",
          "type": "string"
        },
        {
          "name": "_address",
          "type": "address"
        }
      ],
      "name": "registerDA",
      "outputs": [],
      "payable": false,
      "stateMutability": "nonpayable",
      "type": "function"
    },
    {
      "constant": true,
      "inputs": [
        {
          "name": "_daId",
          "type": "string"
        }
      ],
      "name": "getDADetailsAddress",
      "outputs": [
        {
          "name": "",
          "type": "address"
        }
      ],
      "payable": false,
      "stateMutability": "view",
      "type": "function"
    },
    {
      "constant": true,
      "inputs": [],
      "name": "getDARegisterCount",
      "outputs": [
        {
          "name": "",
          "type": "uint256"
        }
      ],
      "payable": false,
      "stateMutability": "view",
      "type": "function"
    },
    {
      "constant": true,
      "inputs": [
        {
          "name": "index",
          "type": "uint256"
        }
      ],
      "name": "getDARegisterId",
      "outputs": [
        {
          "name": "",
          "type": "string"
        }
      ],
      "payable": false,
      "stateMutability": "view",
      "type": "function"
    },
    {
      "constant": false,
      "inputs": [
        {
          "name": "_daId",
          "type": "string"
        },
        {
          "name": "_dateLodged",
          "type": "uint256"
        },
        {
          "name": "_description",
          "type": "string"
        },
        {
          "name": "_lga",
          "type": "string"
        },
        {
          "name": "_estimatedCost",
          "type": "uint256"
        }
      ],
      "name": "createDA",
      "outputs": [],
      "payable": false,
      "stateMutability": "nonpayable",
      "type": "function"
    }
  ],
  "bytecode": "0x608060405234801561001057600080fd5b50615cce806100206000396000f30060806040526004361061006d576000357c0100000000000000000000000000000000000000000000000000000000900463ffffffff168063298accdb146100725780634a73b6f71461017b57806377fac655146102245780638dc4dd5a146102ad57806391884a9e14610353575b600080fd5b34801561007e57600080fd5b50610179600480360381019080803590602001908201803590602001908080601f016020809104026020016040519081016040528093929190818152602001838380828437820191505050505050919291929080359060200190929190803590602001908201803590602001908080601f0160208091040260200160405190810160405280939291908181526020018383808284378201915050505050509192919290803590602001908201803590602001908080601f01602080910402602001604051908101604052809392919081815260200183838082843782019150505050505091929192908035906020019092919050505061037e565b005b34801561018757600080fd5b506101e2600480360381019080803590602001908201803590602001908080601f0160208091040260200160405190810160405280939291908181526020018383808284378201915050505050509192919290505050610513565b604051808273ffffffffffffffffffffffffffffffffffffffff1673ffffffffffffffffffffffffffffffffffffffff16815260200191505060405180910390f35b34801561023057600080fd5b506102ab600480360381019080803590602001908201803590602001908080601f0160208091040260200160405190810160405280939291908181526020018383808284378201915050505050509192919290803573ffffffffffffffffffffffffffffffffffffffff1690602001909291905050506105a7565b005b3480156102b957600080fd5b506102d86004803603810190808035906020019092919050505061073e565b6040518080602001828103825283818151815260200191508051906020019080838360005b838110156103185780820151818401526020810190506102fd565b50505050905090810190601f1680156103455780820380516001836020036101000a031916815260200191505b509250505060405180910390f35b34801561035f57600080fd5b506103686107f9565b6040518082815260200191505060405180910390f35b6000858585858561038d610806565b80806020018681526020018060200180602001858152602001848103845289818151815260200191508051906020019080838360005b838110156103de5780820151818401526020810190506103c3565b50505050905090810190601f16801561040b5780820380516001836020036101000a031916815260200191505b50848103835287818151815260200191508051906020019080838360005b83811015610444578082015181840152602081019050610429565b50505050905090810190601f1680156104715780820380516001836020036101000a031916815260200191505b50848103825286818151815260200191508051906020019080838360005b838110156104aa57808201518184015260208101905061048f565b50505050905090810190601f1680156104d75780820380516001836020036101000a031916815260200191505b5098505050505050505050604051809103906000f0801580156104fe573d6000803e3d6000fd5b50905061050b86826105a7565b505050505050565b600080826040518082805190602001908083835b60208310151561054c5780518252602082019150602081019050602083039250610527565b6001836020036101000a038019825116818451168082178552505050505050905001915050908152602001604051809103902060009054906101000a900473ffffffffffffffffffffffffffffffffffffffff169050919050565b600080836040518082805190602001908083835b6020831015156105e057805182526020820191506020810190506020830392506105bb565b6001836020036101000a038019825116818451168082178552505050505050905001915050908152602001604051809103902060009054906101000a900473ffffffffffffffffffffffffffffffffffffffff1673ffffffffffffffffffffffffffffffffffffffff16141561069057600182908060018154018082558091505090600182039060005260206000200160009091929091909150908051906020019061068d929190610816565b50505b806000836040518082805190602001908083835b6020831015156106c957805182526020820191506020810190506020830392506106a4565b6001836020036101000a038019825116818451168082178552505050505050905001915050908152602001604051809103902060006101000a81548173ffffffffffffffffffffffffffffffffffffffff021916908373ffffffffffffffffffffffffffffffffffffffff1602179055505050565b606060018281548110151561074f57fe5b906000526020600020018054600181600116156101000203166002900480601f0160208091040260200160405190810160405280929190818152602001828054600181600116156101000203166002900480156107ed5780601f106107c2576101008083540402835291602001916107ed565b820191906000526020600020905b8154815290600101906020018083116107d057829003601f168201915b50505050509050919050565b6000600180549050905090565b6040516153e7806108bc83390190565b828054600181600116156101000203166002900490600052602060002090601f016020900481019282601f1061085757805160ff1916838001178555610885565b82800160010185558215610885579182015b82811115610884578251825591602001919060010190610869565b5b5090506108929190610896565b5090565b6108b891905b808211156108b457600081600090555060010161089c565b5090565b90560060806040523480156200001157600080fd5b50604051620053e7380380620053e7833981018060405281019080805182019291906020018051906020019092919080518201929190602001805182019291906020018051906020019092919050505033600660006101000a81548173ffffffffffffffffffffffffffffffffffffffff021916908373ffffffffffffffffffffffffffffffffffffffff1602179055508460009080519060200190620000ba9291906200018e565b50836001819055508260039080519060200190620000da9291906200018e565b508160059080519060200190620000f39291906200018e565b508060048190555062000116600062000121640100000000026401000000009004565b50505050506200023d565b80601460006101000a81548160ff021916908360078111156200014057fe5b02179055507f551dc40198cc79684bb69e4931dba4ac16e4598792ee1c0a5000aeea366d7bb681604051808260078111156200017857fe5b60ff16815260200191505060405180910390a150565b828054600181600116156101000203166002900490600052602060002090601f016020900481019282601f10620001d157805160ff191683800117855562000202565b8280016001018555821562000202579182015b8281111562000201578251825591602001919060010190620001e4565b5b50905062000211919062000215565b5090565b6200023a91905b80821115620002365760008160009055506001016200021c565b5090565b90565b61519a806200024d6000396000f300608060405260043610610225576000357c0100000000000000000000000000000000000000000000000000000000900463ffffffff16806306c28ed71461022a5780630b4fc64c146102ba5780631bc52d9b14610363578063268f11531461038e5780632a4ecbd3146103be5780632f8d0417146103ff578063378aa7011461042a57806337c8dacc146104635780633afc4b83146104f35780633b452b8e14610599578063454ac15714610629578063486bce521461065457806349c9a2bd146106d15780634ae9467d146107185780634b0a3e7b146108755780634ea9ae5c146109615780634f307715146109f15780634fe8eb1614610a9757806351b01d8614610c885780635baff95914610db557806365d3e91214610de057806366b36ea814610e5d5780637284e41614610e885780637746a16814610f1857806377d67ceb14610f435780638706c9e11461105657806388e687ea146110815780638cbf2c6f146110d85780638f20373a1461116857806392b2ef0c146111935780639a5f5949146111da5780639b0b688614611280578063b9a54cd914611362578063bbdf48c51461138d578063c51d00eb146113d4578063c74ed48814611451578063cfc4f82014611498578063d386c2261461153e578063d6ed2f0614611620578063d9a874fd1461164b578063df647178146116db578063ed7c238d14611781578063eec8cab714611827578063f1b6dccd14611852578063f38362a21461188b575b600080fd5b34801561023657600080fd5b5061023f611908565b6040518080602001828103825283818151815260200191508051906020019080838360005b8381101561027f578082015181840152602081019050610264565b50505050905090810190601f1680156102ac5780820380516001836020036101000a031916815260200191505b509250505060405180910390f35b3480156102c657600080fd5b50610321600480360381019080803590602001908201803590602001908080601f0160208091040260200160405190810160405280939291908181526020018383808284378201915050505050509192919290505050611945565b604051808273ffffffffffffffffffffffffffffffffffffffff1673ffffffffffffffffffffffffffffffffffffffff16815260200191505060405180910390f35b34801561036f57600080fd5b50610378611c58565b6040518082815260200191505060405180910390f35b34801561039a57600080fd5b506103bc600480360381019080803560ff169060200190929190505050611c5e565b005b3480156103ca57600080fd5b506103e960048036038101908080359060200190929190505050611cc9565b6040518082815260200191505060405180910390f35b34801561040b57600080fd5b506104146120ab565b6040518082815260200191505060405180910390f35b34801561043657600080fd5b5061043f6120b1565b6040518082600781111561044f57fe5b60ff16815260200191505060405180910390f35b34801561046f57600080fd5b506104786120c8565b6040518080602001828103825283818151815260200191508051906020019080838360005b838110156104b857808201518184015260208101905061049d565b50505050905090810190601f1680156104e55780820380516001836020036101000a031916815260200191505b509250505060405180910390f35b3480156104ff57600080fd5b5061051e60048036038101908080359060200190929190505050612166565b6040518080602001828103825283818151815260200191508051906020019080838360005b8381101561055e578082015181840152602081019050610543565b50505050905090810190601f16801561058b5780820380516001836020036101000a031916815260200191505b509250505060405180910390f35b3480156105a557600080fd5b506105ae612221565b6040518080602001828103825283818151815260200191508051906020019080838360005b838110156105ee5780820151818401526020810190506105d3565b50505050905090810190601f16801561061b5780820380516001836020036101000a031916815260200191505b509250505060405180910390f35b34801561063557600080fd5b5061063e6122bf565b6040518082815260200191505060405180910390f35b34801561066057600080fd5b506106bb600480360381019080803590602001908201803590602001908080601f01602080910402602001604051908101604052809392919081815260200183838082843782019150505050505091929192905050506122cc565b6040518082815260200191505060405180910390f35b3480156106dd57600080fd5b506106fe60048036038101908080351515906020019092919050505061260d565b604051808215151515815260200191505060405180910390f35b34801561072457600080fd5b5061085b600480360381019080803590602001908201803590602001908080601f0160208091040260200160405190810160405280939291908181526020018383808284378201915050505050509192919290803590602001908201803590602001908080601f0160208091040260200160405190810160405280939291908181526020018383808284378201915050505050509192919290803590602001908201803590602001908080601f0160208091040260200160405190810160405280939291908181526020018383808284378201915050505050509192919290803590602001908201803590602001908080601f01602080910402602001604051908101604052809392919081815260200183838082843782019150505050505091929192908035906020019092919050505061265d565b604051808215151515815260200191505060405180910390f35b34801561088157600080fd5b506108e6600480360381019080803590602001908201803590602001908080601f0160208091040260200160405190810160405280939291908181526020018383808284378201915050505050509192919290803590602001909291905050506129d6565b6040518080602001828103825283818151815260200191508051906020019080838360005b8381101561092657808201518184015260208101905061090b565b50505050905090810190601f1680156109535780820380516001836020036101000a031916815260200191505b509250505060405180910390f35b34801561096d57600080fd5b50610976612d65565b6040518080602001828103825283818151815260200191508051906020019080838360005b838110156109b657808201518184015260208101905061099b565b50505050905090810190601f1680156109e35780820380516001836020036101000a031916815260200191505b509250505060405180910390f35b3480156109fd57600080fd5b50610a1c60048036038101908080359060200190929190505050612e03565b6040518080602001828103825283818151815260200191508051906020019080838360005b83811015610a5c578082015181840152602081019050610a41565b50505050905090810190601f168015610a895780820380516001836020036101000a031916815260200191505b509250505060405180910390f35b348015610aa357600080fd5b50610ac260048036038101908080359060200190929190505050612ebe565b604051808060200180602001806020018060200186815260200185810385528a818151815260200191508051906020019080838360005b83811015610b14578082015181840152602081019050610af9565b50505050905090810190601f168015610b415780820380516001836020036101000a031916815260200191505b50858103845289818151815260200191508051906020019080838360005b83811015610b7a578082015181840152602081019050610b5f565b50505050905090810190601f168015610ba75780820380516001836020036101000a031916815260200191505b50858103835288818151815260200191508051906020019080838360005b83811015610be0578082015181840152602081019050610bc5565b50505050905090810190601f168015610c0d5780820380516001836020036101000a031916815260200191505b50858103825287818151815260200191508051906020019080838360005b83811015610c46578082015181840152602081019050610c2b565b50505050905090810190601f168015610c735780820380516001836020036101000a031916815260200191505b50995050505050505050505060405180910390f35b348015610c9457600080fd5b50610d9b600480360381019080803590602001908201803590602001908080601f0160208091040260200160405190810160405280939291908181526020018383808284378201915050505050509192919290803590602001908201803590602001908080601f0160208091040260200160405190810160405280939291908181526020018383808284378201915050505050509192919290803573ffffffffffffffffffffffffffffffffffffffff169060200190929190803590602001908201803590602001908080601f01602080910402602001604051908101604052809392919081815260200183838082843782019150505050505091929192905050506132e2565b604051808215151515815260200191505060405180910390f35b348015610dc157600080fd5b50610dca6135d1565b6040518082815260200191505060405180910390f35b348015610dec57600080fd5b50610e5b60048036038101908080359060200190929190803590602001908201803590602001908080601f0160208091040260200160405190810160405280939291908181526020018383808284378201915050505050509192919290803590602001909291905050506135d7565b005b348015610e6957600080fd5b50610e7261363f565b6040518082815260200191505060405180910390f35b348015610e9457600080fd5b50610e9d613645565b6040518080602001828103825283818151815260200191508051906020019080838360005b83811015610edd578082015181840152602081019050610ec2565b50505050905090810190601f168015610f0a5780820380516001836020036101000a031916815260200191505b509250505060405180910390f35b348015610f2457600080fd5b50610f2d6136e3565b6040518082815260200191505060405180910390f35b348015610f4f57600080fd5b50611054600480360381019080803590602001908201803590602001908080601f016020809104026020016040519081016040528093929190818152602001838380828437820191505050505050919291929080359060200190929190803590602001908201803590602001908080601f0160208091040260200160405190810160405280939291908181526020018383808284378201915050505050509192919290803590602001908201803590602001908080601f016020809104026020016040519081016040528093929190818152602001838380828437820191505050505050919291929080359060200190929190803590602001909291905050506136e9565b005b34801561106257600080fd5b5061106b613796565b6040518082815260200191505060405180910390f35b34801561108d57600080fd5b5061109661379c565b604051808273ffffffffffffffffffffffffffffffffffffffff1673ffffffffffffffffffffffffffffffffffffffff16815260200191505060405180910390f35b3480156110e457600080fd5b506110ed6137c2565b6040518080602001828103825283818151815260200191508051906020019080838360005b8381101561112d578082015181840152602081019050611112565b50505050905090810190601f16801561115a5780820380516001836020036101000a031916815260200191505b509250505060405180910390f35b34801561117457600080fd5b5061117d613860565b6040518082815260200191505060405180910390f35b34801561119f57600080fd5b506111c060048036038101908080351515906020019092919050505061386d565b604051808215151515815260200191505060405180910390f35b3480156111e657600080fd5b50611205600480360381019080803590602001909291905050506138bd565b6040518080602001828103825283818151815260200191508051906020019080838360005b8381101561124557808201518184015260208101905061122a565b50505050905090810190601f1680156112725780820380516001836020036101000a031916815260200191505b509250505060405180910390f35b34801561128c57600080fd5b506112e7600480360381019080803590602001908201803590602001908080601f0160208091040260200160405190810160405280939291908181526020018383808284378201915050505050509192919290505050613c9f565b6040518080602001828103825283818151815260200191508051906020019080838360005b8381101561132757808201518184015260208101905061130c565b50505050905090810190601f1680156113545780820380516001836020036101000a031916815260200191505b509250505060405180910390f35b34801561136e57600080fd5b5061137761400d565b6040518082815260200191505060405180910390f35b34801561139957600080fd5b506113ba600480360381019080803515159060200190929190505050614013565b604051808215151515815260200191505060405180910390f35b3480156113e057600080fd5b5061144f60048036038101908080359060200190929190803590602001908201803590602001908080601f016020809104026020016040519081016040528093929190818152602001838380828437820191505050505050919291929080359060200190929190505050614062565b005b34801561145d57600080fd5b5061147e6004803603810190808035151590602001909291905050506140ca565b604051808215151515815260200191505060405180910390f35b3480156114a457600080fd5b506114c36004803603810190808035906020019092919050505061411a565b6040518080602001828103825283818151815260200191508051906020019080838360005b838110156115035780820151818401526020810190506114e8565b50505050905090810190601f1680156115305780820380516001836020036101000a031916815260200191505b509250505060405180910390f35b34801561154a57600080fd5b506115a5600480360381019080803590602001908201803590602001908080601f01602080910402602001604051908101604052809392919081815260200183838082843782019150505050505091929192905050506141d5565b6040518080602001828103825283818151815260200191508051906020019080838360005b838110156115e55780820151818401526020810190506115ca565b50505050905090810190601f1680156116125780820380516001836020036101000a031916815260200191505b509250505060405180910390f35b34801561162c57600080fd5b506116356144e8565b6040518082815260200191505060405180910390f35b34801561165757600080fd5b506116606144ee565b6040518080602001828103825283818151815260200191508051906020019080838360005b838110156116a0578082015181840152602081019050611685565b50505050905090810190601f1680156116cd5780820380516001836020036101000a031916815260200191505b509250505060405180910390f35b3480156116e757600080fd5b506117066004803603810190808035906020019092919050505061458c565b6040518080602001828103825283818151815260200191508051906020019080838360005b8381101561174657808201518184015260208101905061172b565b50505050905090810190601f1680156117735780820380516001836020036101000a031916815260200191505b509250505060405180910390f35b34801561178d57600080fd5b506117ac6004803603810190808035906020019092919050505061496e565b6040518080602001828103825283818151815260200191508051906020019080838360005b838110156117ec5780820151818401526020810190506117d1565b50505050905090810190601f1680156118195780820380516001836020036101000a031916815260200191505b509250505060405180910390f35b34801561183357600080fd5b5061183c614a29565b6040518082815260200191505060405180910390f35b34801561185e57600080fd5b50611867614a2f565b6040518082600781111561187757fe5b60ff16815260200191505060405180910390f35b34801561189757600080fd5b5061190660048036038101908080359060200190929190803590602001908201803590602001908080601f016020809104026020016040519081016040528093929190818152602001838380828437820191505050505050919291929080359060200190929190505050614a42565b005b60606040805190810160405280600281526020017f5b5d000000000000000000000000000000000000000000000000000000000000815250905090565b600061194f614ee8565b6011836040518082805190602001908083835b6020831015156119875780518252602082019150602081019050602083039250611962565b6001836020036101000a03801982511681845116808217855250505050505090500191505090815260200160405180910390206080604051908101604052908160008201805480602002602001604051908101604052809291908181526020016000905b82821015611aa7578382906000526020600020018054600181600116156101000203166002900480601f016020809104026020016040519081016040528092919081815260200182805460018160011615610100020316600290048015611a935780601f10611a6857610100808354040283529160200191611a93565b820191906000526020600020905b815481529060010190602001808311611a7657829003601f168201915b5050505050815260200190600101906119eb565b505050508152602001600182018054600181600116156101000203166002900480601f016020809104026020016040519081016040528092919081815260200182805460018160011615610100020316600290048015611b485780601f10611b1d57610100808354040283529160200191611b48565b820191906000526020600020905b815481529060010190602001808311611b2b57829003601f168201915b50505050508152602001600282018054600181600116156101000203166002900480601f016020809104026020016040519081016040528092919081815260200182805460018160011615610100020316600290048015611bea5780601f10611bbf57610100808354040283529160200191611bea565b820191906000526020600020905b815481529060010190602001808311611bcd57829003601f168201915b505050505081526020016003820160009054906101000a900473ffffffffffffffffffffffffffffffffffffffff1673ffffffffffffffffffffffffffffffffffffffff1673ffffffffffffffffffffffffffffffffffffffff168152505090508060600151915050919050565b60015481565b80601460006101000a81548160ff02191690836007811115611c7c57fe5b02179055507f551dc40198cc79684bb69e4931dba4ac16e4598792ee1c0a5000aeea366d7bb68160405180826007811115611cb357fe5b60ff16815260200191505060405180910390a150565b6000611cd3614f27565b6013601284815481101515611ce457fe5b906000526020600020016040518082805460018160011615610100020316600290048015611d495780601f10611d27576101008083540402835291820191611d49565b820191906000526020600020905b815481529060010190602001808311611d35575b5050915050908152602001604051809103902060c06040519081016040529081600082018054600181600116156101000203166002900480601f016020809104026020016040519081016040528092919081815260200182805460018160011615610100020316600290048015611e015780601f10611dd657610100808354040283529160200191611e01565b820191906000526020600020905b815481529060010190602001808311611de457829003601f168201915b50505050508152602001600182018054600181600116156101000203166002900480601f016020809104026020016040519081016040528092919081815260200182805460018160011615610100020316600290048015611ea35780601f10611e7857610100808354040283529160200191611ea3565b820191906000526020600020905b815481529060010190602001808311611e8657829003601f168201915b50505050508152602001600282018054600181600116156101000203166002900480601f016020809104026020016040519081016040528092919081815260200182805460018160011615610100020316600290048015611f455780601f10611f1a57610100808354040283529160200191611f45565b820191906000526020600020905b815481529060010190602001808311611f2857829003601f168201915b50505050508152602001600382018054600181600116156101000203166002900480601f016020809104026020016040519081016040528092919081815260200182805460018160011615610100020316600290048015611fe75780601f10611fbc57610100808354040283529160200191611fe7565b820191906000526020600020905b815481529060010190602001808311611fca57829003601f168201915b50505050508152602001600482018054600181600116156101000203166002900480601f0160208091040260200160405190810160405280929190818152602001828054600181600116156101000203166002900480156120895780601f1061205e57610100808354040283529160200191612089565b820191906000526020600020905b81548152906001019060200180831161206c57829003601f168201915b5050505050815260200160058201548152505090508060a00151915050919050565b60025481565b6000601460009054906101000a900460ff16905090565b60008054600181600116156101000203166002900480601f01602080910402602001604051908101604052809291908181526020018280546001816001161561010002031660029004801561215e5780601f106121335761010080835404028352916020019161215e565b820191906000526020600020905b81548152906001019060200180831161214157829003601f168201915b505050505081565b606060128281548110151561217757fe5b906000526020600020018054600181600116156101000203166002900480601f0160208091040260200160405190810160405280929190818152602001828054600181600116156101000203166002900480156122155780601f106121ea57610100808354040283529160200191612215565b820191906000526020600020905b8154815290600101906020018083116121f857829003601f168201915b50505050509050919050565b60058054600181600116156101000203166002900480601f0160208091040260200160405190810160405280929190818152602001828054600181600116156101000203166002900480156122b75780601f1061228c576101008083540402835291602001916122b7565b820191906000526020600020905b81548152906001019060200180831161229a57829003601f168201915b505050505081565b6000601280549050905090565b60006122d6614ee8565b6011836040518082805190602001908083835b60208310151561230e57805182526020820191506020810190506020830392506122e9565b6001836020036101000a03801982511681845116808217855250505050505090500191505090815260200160405180910390206080604051908101604052908160008201805480602002602001604051908101604052809291908181526020016000905b8282101561242e578382906000526020600020018054600181600116156101000203166002900480601f01602080910402602001604051908101604052809291908181526020018280546001816001161561010002031660029004801561241a5780601f106123ef5761010080835404028352916020019161241a565b820191906000526020600020905b8154815290600101906020018083116123fd57829003601f168201915b505050505081526020019060010190612372565b505050508152602001600182018054600181600116156101000203166002900480601f0160208091040260200160405190810160405280929190818152602001828054600181600116156101000203166002900480156124cf5780601f106124a4576101008083540402835291602001916124cf565b820191906000526020600020905b8154815290600101906020018083116124b257829003601f168201915b50505050508152602001600282018054600181600116156101000203166002900480601f0160208091040260200160405190810160405280929190818152602001828054600181600116156101000203166002900480156125715780601f1061254657610100808354040283529160200191612571565b820191906000526020600020905b81548152906001019060200180831161255457829003601f168201915b505050505081526020016003820160009054906101000a900473ffffffffffffffffffffffffffffffffffffffff1673ffffffffffffffffffffffffffffffffffffffff1673ffffffffffffffffffffffffffffffffffffffff168152505090506000816060015173ffffffffffffffffffffffffffffffffffffffff1614156125fe5760009150612607565b80600001515191505b50919050565b60006002600781111561261c57fe5b601460009054906101000a900460ff16600781111561263757fe5b14151561264357600080fd5b8115612654576126536003611c5e565b5b60019050919050565b60006060600061275260008054600181600116156101000203166002900480601f0160208091040260200160405190810160405280929190818152602001828054600181600116156101000203166002900480156126fc5780601f106126d1576101008083540402835291602001916126fc565b820191906000526020600020905b8154815290600101906020018083116126df57829003601f168201915b50505050506040805190810160405280600181526020017f5f0000000000000000000000000000000000000000000000000000000000000081525061274d612748601280549050614aaa565b614b53565b614c56565b91506013826040518082805190602001908083835b60208310151561278c5780518252602082019150602081019050602083039250612767565b6001836020036101000a0380198251168184511680821785525050505050509050019150509081526020016040518091039020905060128290806001815401808255809150509060018203906000526020600020016000909192909190915090805190602001906127fe929190614f5e565b505081816000019080519060200190612818929190614f5e565b5087816001019080519060200190612831929190614f5e565b508681600201908051906020019061284a929190614f5e565b5085816003019080519060200190612863929190614f5e565b508481600401908051906020019061287c929190614f5e565b50838160050181905550806013836040518082805190602001908083835b6020831015156128bf578051825260208201915060208101905060208303925061289a565b6001836020036101000a038019825116818451168082178552505050505050905001915050908152602001604051809103902060008201816000019080546001816001161561010002031660029004612919929190614fde565b5060018201816001019080546001816001161561010002031660029004612941929190614fde565b5060028201816002019080546001816001161561010002031660029004612969929190614fde565b5060038201816003019080546001816001161561010002031660029004612991929190614fde565b50600482018160040190805460018160011615610100020316600290046129b9929190614fde565b506005820154816005015590505060019250505095945050505050565b60606129e0614ee8565b6011846040518082805190602001908083835b602083101515612a1857805182526020820191506020810190506020830392506129f3565b6001836020036101000a03801982511681845116808217855250505050505090500191505090815260200160405180910390206080604051908101604052908160008201805480602002602001604051908101604052809291908181526020016000905b82821015612b38578382906000526020600020018054600181600116156101000203166002900480601f016020809104026020016040519081016040528092919081815260200182805460018160011615610100020316600290048015612b245780601f10612af957610100808354040283529160200191612b24565b820191906000526020600020905b815481529060010190602001808311612b0757829003601f168201915b505050505081526020019060010190612a7c565b505050508152602001600182018054600181600116156101000203166002900480601f016020809104026020016040519081016040528092919081815260200182805460018160011615610100020316600290048015612bd95780601f10612bae57610100808354040283529160200191612bd9565b820191906000526020600020905b815481529060010190602001808311612bbc57829003601f168201915b50505050508152602001600282018054600181600116156101000203166002900480601f016020809104026020016040519081016040528092919081815260200182805460018160011615610100020316600290048015612c7b5780601f10612c5057610100808354040283529160200191612c7b565b820191906000526020600020905b815481529060010190602001808311612c5e57829003601f168201915b505050505081526020016003820160009054906101000a900473ffffffffffffffffffffffffffffffffffffffff1673ffffffffffffffffffffffffffffffffffffffff1673ffffffffffffffffffffffffffffffffffffffff168152505090506000816060015173ffffffffffffffffffffffffffffffffffffffff161415612d175760206040519081016040528060008152509150612d5e565b600183018160000151511015612d3f5760206040519081016040528060008152509150612d5e565b806000015183815181101515612d5157fe5b9060200190602002015191505b5092915050565b600f8054600181600116156101000203166002900480601f016020809104026020016040519081016040528092919081815260200182805460018160011615610100020316600290048015612dfb5780601f10612dd057610100808354040283529160200191612dfb565b820191906000526020600020905b815481529060010190602001808311612dde57829003601f168201915b505050505081565b601281815481101515612e1257fe5b906000526020600020016000915090508054600181600116156101000203166002900480601f016020809104026020016040519081016040528092919081815260200182805460018160011615610100020316600290048015612eb65780601f10612e8b57610100808354040283529160200191612eb6565b820191906000526020600020905b815481529060010190602001808311612e9957829003601f168201915b505050505081565b6060806060806000612ece614f27565b6060806060806000601360128d815481101515612ee757fe5b906000526020600020016040518082805460018160011615610100020316600290048015612f4c5780601f10612f2a576101008083540402835291820191612f4c565b820191906000526020600020905b815481529060010190602001808311612f38575b5050915050908152602001604051809103902060c06040519081016040529081600082018054600181600116156101000203166002900480601f0160208091040260200160405190810160405280929190818152602001828054600181600116156101000203166002900480156130045780601f10612fd957610100808354040283529160200191613004565b820191906000526020600020905b815481529060010190602001808311612fe757829003601f168201915b50505050508152602001600182018054600181600116156101000203166002900480601f0160208091040260200160405190810160405280929190818152602001828054600181600116156101000203166002900480156130a65780601f1061307b576101008083540402835291602001916130a6565b820191906000526020600020905b81548152906001019060200180831161308957829003601f168201915b50505050508152602001600282018054600181600116156101000203166002900480601f0160208091040260200160405190810160405280929190818152602001828054600181600116156101000203166002900480156131485780601f1061311d57610100808354040283529160200191613148565b820191906000526020600020905b81548152906001019060200180831161312b57829003601f168201915b50505050508152602001600382018054600181600116156101000203166002900480601f0160208091040260200160405190810160405280929190818152602001828054600181600116156101000203166002900480156131ea5780601f106131bf576101008083540402835291602001916131ea565b820191906000526020600020905b8154815290600101906020018083116131cd57829003601f168201915b50505050508152602001600482018054600181600116156101000203166002900480601f01602080910402602001604051908101604052809291908181526020018280546001816001161561010002031660029004801561328c5780601f106132615761010080835404028352916020019161328c565b820191906000526020600020905b81548152906001019060200180831161326f57829003601f168201915b505050505081526020016005820154815250509550856020015194508560400151935085606001519250856080015191508560a00151905084848484849a509a509a509a509a5050505050505091939590929450565b6000806011866040518082805190602001908083835b60208310151561331d57805182526020820191506020810190506020830392506132f8565b6001836020036101000a0380198251168184511680821785525050505050509050019150509081526020016040518091039020905060008160030160009054906101000a900473ffffffffffffffffffffffffffffffffffffffff1673ffffffffffffffffffffffffffffffffffffffff1614156133d55760108690806001815401808255809150509060018203906000526020600020016000909192909190915090805190602001906133d2929190614f5e565b50505b80600001839080600181540180825580915050906001820390600052602060002001600090919290919091509080519060200190613414929190614f5e565b50508481600201908051906020019061342e929190614f5e565b50838160030160006101000a81548173ffffffffffffffffffffffffffffffffffffffff021916908373ffffffffffffffffffffffffffffffffffffffff1602179055508581600101908051906020019061348a929190614f5e565b50806011876040518082805190602001908083835b6020831015156134c4578051825260208201915060208101905060208303925061349f565b6001836020036101000a0380198251168184511680821785525050505050509050019150509081526020016040518091039020600082018160000190805461350d929190615065565b5060018201816001019080546001816001161561010002031660029004613535929190614fde565b506002820181600201908054600181600116156101000203166002900461355d929190614fde565b506003820160009054906101000a900473ffffffffffffffffffffffffffffffffffffffff168160030160006101000a81548173ffffffffffffffffffffffffffffffffffffffff021916908373ffffffffffffffffffffffffffffffffffffffff16021790555090505050949350505050565b60075481565b600160078111156135e457fe5b601460009054906101000a900460ff1660078111156135ff57fe5b14151561360b57600080fd5b826007819055508160099080519060200190613628929190614f5e565b508060088190555061363a6002611c5e565b505050565b600a5481565b60038054600181600116156101000203166002900480601f0160208091040260200160405190810160405280929190818152602001828054600181600116156101000203166002900480156136db5780601f106136b0576101008083540402835291602001916136db565b820191906000526020600020905b8154815290600101906020018083116136be57829003601f168201915b505050505081565b600d5481565b33600660006101000a81548173ffffffffffffffffffffffffffffffffffffffff021916908373ffffffffffffffffffffffffffffffffffffffff1602179055508560009080519060200190613740929190614f5e565b5084600181905550836003908051906020019061375e929190614f5e565b508260059080519060200190613775929190614f5e565b50816004819055508060028190555061378e6000611c5e565b505050505050565b600b5481565b600660009054906101000a900473ffffffffffffffffffffffffffffffffffffffff1681565b600c8054600181600116156101000203166002900480601f0160208091040260200160405190810160405280929190818152602001828054600181600116156101000203166002900480156138585780601f1061382d57610100808354040283529160200191613858565b820191906000526020600020905b81548152906001019060200180831161383b57829003601f168201915b505050505081565b6000601080549050905090565b60006004600781111561387c57fe5b601460009054906101000a900460ff16600781111561389757fe5b1415156138a357600080fd5b81156138b4576138b36005611c5e565b5b60019050919050565b60606138c7614f27565b60136012848154811015156138d857fe5b90600052602060002001604051808280546001816001161561010002031660029004801561393d5780601f1061391b57610100808354040283529182019161393d565b820191906000526020600020905b815481529060010190602001808311613929575b5050915050908152602001604051809103902060c06040519081016040529081600082018054600181600116156101000203166002900480601f0160208091040260200160405190810160405280929190818152602001828054600181600116156101000203166002900480156139f55780601f106139ca576101008083540402835291602001916139f5565b820191906000526020600020905b8154815290600101906020018083116139d857829003601f168201915b50505050508152602001600182018054600181600116156101000203166002900480601f016020809104026020016040519081016040528092919081815260200182805460018160011615610100020316600290048015613a975780601f10613a6c57610100808354040283529160200191613a97565b820191906000526020600020905b815481529060010190602001808311613a7a57829003601f168201915b50505050508152602001600282018054600181600116156101000203166002900480601f016020809104026020016040519081016040528092919081815260200182805460018160011615610100020316600290048015613b395780601f10613b0e57610100808354040283529160200191613b39565b820191906000526020600020905b815481529060010190602001808311613b1c57829003601f168201915b50505050508152602001600382018054600181600116156101000203166002900480601f016020809104026020016040519081016040528092919081815260200182805460018160011615610100020316600290048015613bdb5780601f10613bb057610100808354040283529160200191613bdb565b820191906000526020600020905b815481529060010190602001808311613bbe57829003601f168201915b50505050508152602001600482018054600181600116156101000203166002900480601f016020809104026020016040519081016040528092919081815260200182805460018160011615610100020316600290048015613c7d5780601f10613c5257610100808354040283529160200191613c7d565b820191906000526020600020905b815481529060010190602001808311613c6057829003601f168201915b5050505050815260200160058201548152505090508060400151915050919050565b6060613ca9614ee8565b6011836040518082805190602001908083835b602083101515613ce15780518252602082019150602081019050602083039250613cbc565b6001836020036101000a03801982511681845116808217855250505050505090500191505090815260200160405180910390206080604051908101604052908160008201805480602002602001604051908101604052809291908181526020016000905b82821015613e01578382906000526020600020018054600181600116156101000203166002900480601f016020809104026020016040519081016040528092919081815260200182805460018160011615610100020316600290048015613ded5780601f10613dc257610100808354040283529160200191613ded565b820191906000526020600020905b815481529060010190602001808311613dd057829003601f168201915b505050505081526020019060010190613d45565b505050508152602001600182018054600181600116156101000203166002900480601f016020809104026020016040519081016040528092919081815260200182805460018160011615610100020316600290048015613ea25780601f10613e7757610100808354040283529160200191613ea2565b820191906000526020600020905b815481529060010190602001808311613e8557829003601f168201915b50505050508152602001600282018054600181600116156101000203166002900480601f016020809104026020016040519081016040528092919081815260200182805460018160011615610100020316600290048015613f445780601f10613f1957610100808354040283529160200191613f44565b820191906000526020600020905b815481529060010190602001808311613f2757829003601f168201915b505050505081526020016003820160009054906101000a900473ffffffffffffffffffffffffffffffffffffffff1673ffffffffffffffffffffffffffffffffffffffff1673ffffffffffffffffffffffffffffffffffffffff168152505090506000816060015173ffffffffffffffffffffffffffffffffffffffff161415613fe05760206040519081016040528060008152509150614007565b8060000151600182600001515103815181101515613ffa57fe5b9060200190602002015191505b50919050565b600e5481565b600080600781111561402157fe5b601460009054906101000a900460ff16600781111561403c57fe5b14151561404857600080fd5b8115614059576140586001611c5e565b5b60019050919050565b6003600781111561406f57fe5b601460009054906101000a900460ff16600781111561408a57fe5b14151561409657600080fd5b82600a8190555081600c90805190602001906140b3929190614f5e565b5080600b819055506140c56004611c5e565b505050565b6000600660078111156140d957fe5b601460009054906101000a900460ff1660078111156140f457fe5b14151561410057600080fd5b8115614111576141106007611c5e565b5b60019050919050565b60108181548110151561412957fe5b906000526020600020016000915090508054600181600116156101000203166002900480601f0160208091040260200160405190810160405280929190818152602001828054600181600116156101000203166002900480156141cd5780601f106141a2576101008083540402835291602001916141cd565b820191906000526020600020905b8154815290600101906020018083116141b057829003601f168201915b505050505081565b60606141df614ee8565b6011836040518082805190602001908083835b60208310151561421757805182526020820191506020810190506020830392506141f2565b6001836020036101000a03801982511681845116808217855250505050505090500191505090815260200160405180910390206080604051908101604052908160008201805480602002602001604051908101604052809291908181526020016000905b82821015614337578382906000526020600020018054600181600116156101000203166002900480601f0160208091040260200160405190810160405280929190818152602001828054600181600116156101000203166002900480156143235780601f106142f857610100808354040283529160200191614323565b820191906000526020600020905b81548152906001019060200180831161430657829003601f168201915b50505050508152602001906001019061427b565b505050508152602001600182018054600181600116156101000203166002900480601f0160208091040260200160405190810160405280929190818152602001828054600181600116156101000203166002900480156143d85780601f106143ad576101008083540402835291602001916143d8565b820191906000526020600020905b8154815290600101906020018083116143bb57829003601f168201915b50505050508152602001600282018054600181600116156101000203166002900480601f01602080910402602001604051908101604052809291908181526020018280546001816001161561010002031660029004801561447a5780601f1061444f5761010080835404028352916020019161447a565b820191906000526020600020905b81548152906001019060200180831161445d57829003601f168201915b505050505081526020016003820160009054906101000a900473ffffffffffffffffffffffffffffffffffffffff1673ffffffffffffffffffffffffffffffffffffffff1673ffffffffffffffffffffffffffffffffffffffff168152505090508060400151915050919050565b60045481565b60098054600181600116156101000203166002900480601f0160208091040260200160405190810160405280929190818152602001828054600181600116156101000203166002900480156145845780601f1061455957610100808354040283529160200191614584565b820191906000526020600020905b81548152906001019060200180831161456757829003601f168201915b505050505081565b6060614596614f27565b60136012848154811015156145a757fe5b90600052602060002001604051808280546001816001161561010002031660029004801561460c5780601f106145ea57610100808354040283529182019161460c565b820191906000526020600020905b8154815290600101906020018083116145f8575b5050915050908152602001604051809103902060c06040519081016040529081600082018054600181600116156101000203166002900480601f0160208091040260200160405190810160405280929190818152602001828054600181600116156101000203166002900480156146c45780601f10614699576101008083540402835291602001916146c4565b820191906000526020600020905b8154815290600101906020018083116146a757829003601f168201915b50505050508152602001600182018054600181600116156101000203166002900480601f0160208091040260200160405190810160405280929190818152602001828054600181600116156101000203166002900480156147665780601f1061473b57610100808354040283529160200191614766565b820191906000526020600020905b81548152906001019060200180831161474957829003601f168201915b50505050508152602001600282018054600181600116156101000203166002900480601f0160208091040260200160405190810160405280929190818152602001828054600181600116156101000203166002900480156148085780601f106147dd57610100808354040283529160200191614808565b820191906000526020600020905b8154815290600101906020018083116147eb57829003601f168201915b50505050508152602001600382018054600181600116156101000203166002900480601f0160208091040260200160405190810160405280929190818152602001828054600181600116156101000203166002900480156148aa5780601f1061487f576101008083540402835291602001916148aa565b820191906000526020600020905b81548152906001019060200180831161488d57829003601f168201915b50505050508152602001600482018054600181600116156101000203166002900480601f01602080910402602001604051908101604052809291908181526020018280546001816001161561010002031660029004801561494c5780601f106149215761010080835404028352916020019161494c565b820191906000526020600020905b81548152906001019060200180831161492f57829003601f168201915b5050505050815260200160058201548152505090508060200151915050919050565b606060108281548110151561497f57fe5b906000526020600020018054600181600116156101000203166002900480601f016020809104026020016040519081016040528092919081815260200182805460018160011615610100020316600290048015614a1d5780601f106149f257610100808354040283529160200191614a1d565b820191906000526020600020905b815481529060010190602001808311614a0057829003601f168201915b50505050509050919050565b60085481565b601460009054906101000a900460ff1681565b60056007811115614a4f57fe5b601460009054906101000a900460ff166007811115614a6a57fe5b141515614a7657600080fd5b82600d8190555080600e8190555081600f9080519060200190614a9a929190614f5e565b50614aa56006611c5e565b505050565b600080821415614adc577f30000000000000000000000000000000000000000000000000000000000000009050614b4b565b5b6000821115614b4a576101008160019004811515614af757fe5b0460010290507f01000000000000000000000000000000000000000000000000000000000000006030600a84811515614b2c57fe5b06010260010281179050600a82811515614b4257fe5b049150614add565b5b809050919050565b60608060008060206040519080825280601f01601f191660200182016040528015614b8d5781602001602082028038833980820191505090505b509250600091505b6020821015614c4b578160080260020a856001900402600102905060007f010000000000000000000000000000000000000000000000000000000000000002817effffffffffffffffffffffffffffffffffffffffffffffffffffffffffffff1916141515614c3e57808383815181101515614c0d57fe5b9060200101907effffffffffffffffffffffffffffffffffffffffffffffffffffffffffffff1916908160001a9053505b8180600101925050614b95565b829350505050919050565b6060806060806060806000808a965089955088945084518651885101016040519080825280601f01601f191660200182016040528015614ca55781602001602082028038833980820191505090505b50935083925060009150600090505b8651811015614d67578681815181101515614ccb57fe5b9060200101517f010000000000000000000000000000000000000000000000000000000000000090047f0100000000000000000000000000000000000000000000000000000000000000028383806001019450815181101515614d2a57fe5b9060200101907effffffffffffffffffffffffffffffffffffffffffffffffffffffffffffff1916908160001a9053508080600101915050614cb4565b600090505b8551811015614e1f578581815181101515614d8357fe5b9060200101517f010000000000000000000000000000000000000000000000000000000000000090047f0100000000000000000000000000000000000000000000000000000000000000028383806001019450815181101515614de257fe5b9060200101907effffffffffffffffffffffffffffffffffffffffffffffffffffffffffffff1916908160001a9053508080600101915050614d6c565b600090505b8451811015614ed7578481815181101515614e3b57fe5b9060200101517f010000000000000000000000000000000000000000000000000000000000000090047f0100000000000000000000000000000000000000000000000000000000000000028383806001019450815181101515614e9a57fe5b9060200101907effffffffffffffffffffffffffffffffffffffffffffffffffffffffffffff1916908160001a9053508080600101915050614e24565b829750505050505050509392505050565b608060405190810160405280606081526020016060815260200160608152602001600073ffffffffffffffffffffffffffffffffffffffff1681525090565b60c0604051908101604052806060815260200160608152602001606081526020016060815260200160608152602001600081525090565b828054600181600116156101000203166002900490600052602060002090601f016020900481019282601f10614f9f57805160ff1916838001178555614fcd565b82800160010185558215614fcd579182015b82811115614fcc578251825591602001919060010190614fb1565b5b509050614fda91906150d5565b5090565b828054600181600116156101000203166002900490600052602060002090601f016020900481019282601f106150175780548555615054565b8280016001018555821561505457600052602060002091601f016020900482015b82811115615053578254825591600101919060010190615038565b5b50905061506191906150d5565b5090565b8280548282559060005260206000209081019282156150c45760005260206000209182015b828111156150c357828290805460018160011615610100020316600290046150b3929190614fde565b509160010191906001019061508a565b5b5090506150d191906150fa565b5090565b6150f791905b808211156150f35760008160009055506001016150db565b5090565b90565b61512391905b8082111561511f57600081816151169190615126565b50600101615100565b5090565b90565b50805460018160011615610100020316600290046000825580601f1061514c575061516b565b601f01602090049060005260206000209081019061516a91906150d5565b5b505600a165627a7a7230582076c7f1882616e585c87f18a2c115f7131e0af23b8b56cd1670a8610c92f7273b0029a165627a7a72305820fd2fa762f16a5470ff32ad7187278eb0e851a0ad88b6e57bec0d91ae464aff680029",
  "source": "pragma solidity ^0.4.24;\r\nimport \"./DADetails.sol\";\r\n\r\ncontract DARegister {\r\n\r\n    // FIELDS\r\n    mapping(string => address) register;\r\n    string[] daIds;\r\n\r\n    // METHODS\r\n    function registerDA (string _daId, address _address) public {\r\n        if (register[_daId] == 0x00) {\r\n            daIds.push(_daId);\r\n        }\r\n        register[_daId] = _address;\r\n\r\n    }\r\n\r\n    function getDADetailsAddress (string _daId) public view returns(address) {\r\n        return register[_daId];\r\n    }\r\n\r\n    function getDARegisterCount() public view returns(uint256) {\r\n        return daIds.length;\r\n    }\r\n\r\n    function getDARegisterId(uint256 index) public view returns(string) {\r\n        return daIds[index];\r\n    }\r\n\r\n    function createDA (string _daId, uint _dateLodged, string _description, string _lga, uint _estimatedCost) public {\r\n        DADetails daDetails = new DADetails(_daId, _dateLodged, _description, _lga, _estimatedCost);\r\n        registerDA(_daId, daDetails);\r\n    }\r\n}\r\n",
  "sourcePath": "/mnt/d/BusinessAspect/Blockchain-For-Land-Development-Approvals/truffle/contracts/DARegister.sol",
  "compiler": {
    "name": "solc",
    "version": "0.4.24+commit.e67f0147.Emscripten.clang"
  },
  "schemaVersion": "2.0.1",
  "updatedAt": "2018-07-22T04:12:27.575Z"
}